:100000000C9455080C9472080C9472080C947208A5
:100010000C9472080C9472080C9472080C94720878
:100020000C9472080C9472080C94C71E0C94821DD8
:100030000C947B200C9472080C9472080C94720837
:100040000C9472080C9472080C9472080C94720848
:100050000C9472080C942E200C9472080C94720864
:100060000C9472080C9472080C9472080C94720828
:100070000C9472080C9472080C9472080C94720818
:100080000C9472080C9472080C9472080C94720808
:100090000C9472080C9472080C9472080C947208F8
:1000A0000C9472080C9472080C947208640C670C1F
:1000B0008A0C970C9E0CA90CAC0CEE0C100DA80D24
:1000C000A80D640D1B0D1E0D410D610D640D670D16
:1000D000890DE90BF90E140F2F0F4A0F650F800FD2
:1000E0009B0FB60FD10FEC0F83148314B514B51406
:1000F00027156716671667164315D115E215E21521
:1001000058247F2428267F242826CB24EE24282642
:10011000E325F3250601BFFFFFFF000000000005F7
:1001200080FFFFFF00000000040400FFFFFF00004D
:10013000000000DA128180D9F1DB20A4A62EAF00E6
:10014000A0C000A1C800AED580A83FD300408D1448
:10015000200028011E011401000000047F3F1F64DD
:100160003214643214783C1E1E140A050A000A0078
:10017000524553540A004272692B204272692D2065
:100180004546582B204546582D0A004875652B20BA
:100190004875652D205361742B205361742D0A001E
:1001A0004C79722D20204C79722B0A003D3D3D3D4B
:1001B0003D3D3D3D3D3D3D3D3D3D3D3D3D3D3D3D6F
:1001C0000A004C617965723A4B65795F53657474C6
:1001D000696E677331300A000A000A000A000A00DB
:1001E0004C79722D20204C79722B0A003D3D3D3D0B
:1001F0003D3D3D3D3D3D3D3D3D3D3D3D3D3D3D3D2F
:100200000A004C617965723A2056696D20390A00FE
:100210000A000A000A000A004C79722D20204C794D
:10022000722B0A003D3D3D3D3D3D3D3D3D3D3D3D4B
:100230003D3D3D3D3D3D3D3D0A004C617965723A95
:1002400020457863656C20380A000A000A000A001D
:100250000A004C79722D20204C79722B0A003D3D0A
:100260003D3D3D3D3D3D3D3D3D3D3D3D3D3D3D3DBE
:100270003D3D0A004C617965723A2044615F5669E0
:100280006E636920370A000A000A000A000A004C5F
:1002900079722D20204C79722B0A003D3D3D3D3D69
:1002A0003D3D3D3D3D3D3D3D3D3D3D3D3D3D3D0AB1
:1002B000004C617965723A2050686F746F73686F93
:1002C0007020360A000A000A000A000A004C7972FF
:1002D0002D20204C79722B0A003D3D3D3D3D3D3D9A
:1002E0003D3D3D3D3D3D3D3D3D3D3D3D3D0A004C9F
:1002F000617965723A2053616920350A000A000A63
:10030000000A000A004C79722D20204C79722B0AC9
:10031000003D3D3D3D3D3D3D3D3D3D3D3D3D3D3D4A
:100320003D3D3D3D3D0A004C617965723A204944AE
:10033000454120340A004869644E20456E642020FF
:100340005365746E20536176650A00436F6D6420B7
:10035000486F6D652043702B202043702D200A00CC
:100360005265706C2046696E64204D6F762B204D6F
:100370006F762D0A00436F6D7420537263682046B8
:100380006D617420556E646F0A004C79722D2020C7
:100390004C79722B0A003D3D3D3D3D3D3D3D3D3D8F
:1003A0003D3D3D3D3D3D3D3D3D3D0A004C61796556
:1003B000723A2056535F436F646520330A00456EDE
:1003C00074722030202020202E202020202B20205E
:1003D000200A00312020202032202020203320201D
:1003E00020202D2020200A0034202020203520200D
:1003F000202036202020202A2020200A00372020FC
:100400002020382020202039202020202F202020AC
:100410000A004C79722D20204C79722B0A003D3D48
:100420003D3D3D3D3D3D3D3D3D3D3D3D3D3D3D3DFC
:100430003D3D0A004C617965723A204E756D6265EA
:100440007250616420320A002A2A2A2A202A2A2A83
:100450002A205A6F6D30205A6F6D2B0A0043722B81
:1004600046204D696E202043616C20205A6F6D2D0F
:100470000A004C6F636B204D61782020505570202E
:100480002050446F770A0057696E582057546162B4
:1004900020566B657920486964650A004E2F41201B
:1004A000204C4544200A003D3D3D3D3D3D3D3D3D08
:1004B0003D3D3D3D3D3D3D3D3D3D3D0A004C61796D
:1004C00065723A205379735F3220310A00456E74A9
:1004D0007220506173742020436F707920437574CB
:1004E000200A00416C6C20204C73745067204C61D2
:1004F0006E6720536176650A00486F6D6520456E12
:10050000642020205363726E20556E646F0A004D84
:1005100079437020416C2B54202057696E44204D44
:100520007574650A00546F5F31204C79722B0A0094
:100530003D3D3D3D3D3D3D3D3D3D3D3D3D3D3D3DEB
:100540003D3D3D3D0A004C617965723A53797374C3
:10055000656D20300A00000000000000000000006F
:10056000000000000000000000000000000000008B
:10057000000000000000000000007E0F00D4FFFF1C
:10058000FFC70000007800000000000000002A2BD8
:100590002800000000000000000000000000000033
:1005A0000029000000002C1E34202122243426279C
:1005B000252E362D3738271E1F20212223242526BD
:1005C0003333362E37381F0405060708090A0B0C8B
:1005D0000D0E0F101112131415161718191A1B1CD3
:1005E0001D2F3130232D350405060708090A0B0C91
:1005F0000D0E0F101112131415161718191A1B1CB3
:100600001D2F3130354C00AF00AEAE001150000050
:10061000000053002A00000000005F00600061003D
:1006200054005C005D005E00550059005A005B00FC
:1006300056005800620063005700000000000000F0
:1006400000000000000000000000000000000000AA
:10065000000000000000000000000000000000009A
:10066000000000000000000000000000000000008A
:10067000000000000000000000000000000000007A
:10068000000000000000000000000000000000006A
:10069000000000000000000000000000000000005A
:1006A000000000000000000000000000000000004A
:1006B000000000000000000000000000000000003A
:1006C000000000000000000000000000000000002A
:1006D000000000000000000000000000000000001A
:1006E000000000000000000000000000000000000A
:1006F00000000000000000000000000000000000FA
:1007000000000000000000000000000000000000E9
:1007100000000000000000000000000000000000D9
:1007200000000000000000000000000000000000C9
:1007300000000000000000000000000000000000B9
:1007400000000000000000000000000000000000A9
:100750000000000000000000000000000000000099
:100760000000000000000000000000000000000089
:100770000000000000000000000000000000000079
:100780000000000000000000000000000000000069
:100790000000000000000000000000000000000059
:1007A0000000000000000000000000000000000049
:1007B0000000000000000000000000000000000039
:1007C0000000000000000000000000000000000029
:1007D0000000000000000000000000000000000019
:1007E00000000000000000000000C25C105000008B
:1007F0000000C55CC65C00000000C75CC85C00006F
:100800000000C95CCA5C00000000C35CC45C00005E
:100810000000000000000000005C05010980A1014B
:10082000850319012AB700150126B7009501751037
:100830008100C0050C0901A101850419012AA0024B
:10084000150126A002950175108100C00660FF0900
:1008500061A1010962150026FF009520750881023B
:100860000963150026FF00952075089102C0050157
:100870000906A101050719E029E7150025019508DA
:10088000750181029501750881010507190029FF8D
:10089000150026FF00950675088100050819012935
:1008A00005950575019102950175039101C0090235
:1008B0005B00030100A0FA0904000001030101002C
:1008C00009211101000122400007058103080001F0
:1008D00009040100020300000009211101000122A6
:1008E0002200070582032000010705030320000101
:1008F0000904020001030000000921110100012286
:1009000032000705840320000112010002000000EC
:100910000846434A580300010200011A03530043EA
:100920000046002D004E0055004D0050004100448F
:10093000002D0031000000200344006500730069B1
:100940000067006E006500640020006200790020EE
:100950000053004300460000000403090407087F19
:100960000807003E5B4F5B3E003E6B4F6B3E001C3A
:100970003E7C3E1C00183C7E3C18001C577D571CDA
:10098000001C5E7F5E1C0000183C180000FFE7C3DF
:10099000E7FF00001824180000FFE7DBE7FF003046
:1009A000483A060E00262979292600407F050507CA
:1009B00000407F05253F005A3CE73C5A007F3E1C23
:1009C0001C0800081C1C3E7F0014227F2214005FBC
:1009D0005F005F5F0006097F017F00006689956AFE
:1009E0000060606060600094A2FFA2940008047E32
:1009F00004080010207E20100008082A1C080008A7
:100A00001C2A0808001E10101010000C1E0C1E0CD2
:100A10000030383E383000060E3E0E060000000062
:100A200000000000005F0000000007000700001445
:100A30007F147F1400242A7F2A1200231308646283
:100A400000364956205000000807030000001C2211
:100A50004100000041221C00002A1C7F1C2A0008C3
:100A6000083E0808000080703000000808080808E8
:100A7000000000606000002010080402003E5149A0
:100A8000453E0000427F400000724949494600212E
:100A900041494D33001814127F1000274545453950
:100AA000003C4A49493100412111090700364949B2
:100AB000493600464949291E000000140000000084
:100AC00040340000000008142241001414141414CF
:100AD000000041221408000201590906003E415D50
:100AE000594E007C1211127C007F49494936003E64
:100AF00041414122007F4141413E007F49494941F6
:100B0000007F09090901003E41415173007F080837
:100B1000087F0000417F4100002040413F01007FED
:100B200008142241007F40404040007F021C027FA9
:100B3000007F0408107F003E4141413E007F0909CB
:100B40000906003E4151215E007F09192946002611
:100B5000494949320003017F0103003F4040403FC3
:100B6000001F2040201F003F4038403F0063140812
:100B70001463000304780403006159494D430000E5
:100B80007F41414100020408102000004141417FA3
:100B900000040201020400404040404000000307FE
:100BA0000800002054547840007F2844443800381E
:100BB0004444442800384444287F0038545454188E
:100BC0000000087E09020018A4A49C78007F080495
:100BD00004780000447D4000002040403D00007F3C
:100BE000102844000000417F4000007C0478047815
:100BF000007C0804047800384444443800FC18247D
:100C000024180018242418FC007C08040408004858
:100C1000545454240004043F4424003C4040207CAD
:100C2000001C2040201C003C4030403C0044281068
:100C30002844004C9090907C004464544C44000044
:100C4000083641000000007700000000413608002F
:100C5000000201020402003C2623263C00000000A2
:100C6000000000404040F0F8F8FF38FFF8F83FF887
:100C7000F8FF38FFF8F8F0404040000000000000A6
:100C800080C0C0C0800000C0C08000000080C0C024
:100C900000C0C0000080C0C00000000000C0C0C094
:100CA000C0C000C0C0000000000000000000000044
:100CB0000000000000000000000000000000000034
:100CC0000000000000000000000000000000000024
:100CD000000000000000000000000000C0F0F8FC70
:100CE0003E1E06010000007F4141417F007F4141DF
:100CF000417F000080C0E07E5B4F5BFEC00000C013
:100D000000DCD7DEDEDED7DC00C000000000000023
:100D100000000000000000000000000000000000D3
:100D2000000000494949FFFFFFFFE0DFBFBF00BFF0
:100D3000BFDFE0FFFFFFFF49494900000000001F3F
:100D40003F6060E0BF1F007F7F071E381E077F7F68
:100D5000007F7F0E1F3B716000000000007F7F0C52
:100D60000C0C007E7E007F7E0303007F7E03037EEB
:100D70007E03037F7E000F3E703C063C703E0F00FA
:100D8000327B49493F7E007F7E0303001E3F696935
:100D90006F2600000000000000000000030F1F3F4E
:100DA0003C7870600000007F4141417F007F4141FD
:100DB000417F00307B7F7830202030787F3B0003FC
:100DC000000F7F0F0F0F7F0F0003000000000000D7
:100DD0000000000000000000000000000000000013
:100DE000000000010101070F0F7F0F7F0F0F7E0F23
:100DF0000F7F0F7F0F0F07010101000000000000AF
:100E000000000000010100000000000000000000E0
:100E100000000000000000000000000000000000D2
:100E200000000000000000000000000000000000C2
:100E300000000000000000000000000000000000B2
:100E400000000000000000000000000000000000A2
:100E50000000000000000000000000000000000092
:100E60000000000000000000000000000000000082
:100E70000000000000000000000000000000000072
:100E80000000000000000000000000000000000062
:100E900000000000000000000000000000FFAA7F2A
:100EA00055400001020304050607222325262829B0
:100EB0002A2C2D2F3032333536383A3B3D3E4042D6
:100EC000434547494A4C4E5051535557595A5C5E19
:100ED0006062646668696B6D6F71737577797B7D2D
:100EE0007F81838587898A8C8E90929496989A9C2C
:100EF0009E9FA1A3A5A7A8AAACAEAFB1B3B4B6B844
:100F0000B9BBBCBEBFC1C2C3C5C6C7C9CACBCCCDA5
:100F1000CED0D1D2D2D3D4D5D6D7D7D8D9D9DADA80
:100F2000DBDBDBDCDCDCDCDCDDDDDDDDDCDCDCDC00
:100F3000DCDBDBDBDADAD9D9D8D7D7D6D5D4D3D234
:100F4000D2D1D0CECDCCCBCAC9C7C6C5C3C2C1BF12
:100F5000BEBCBBB9B8B6B4B3B1AFAEACAAA8A7A576
:100F6000A3A19F9E9C9A98969492908E8C8A898732
:100F70008583817F7D7B79777573716F6D6B696810
:100F8000666462605E5C5A5957555351504E4C4AE4
:100F90004947454342403E3D3B3A3836353332308F
:100FA0002F2D2C2A292826252322000101010101A9
:100FB0000101010102020202020202020203030312
:100FC00003030303030404040404040405050505E2
:100FD00005060606060607070707070808080809A2
:100FE0000909090A0A0A0B0B0B0C0C0C0D0D0D0E4E
:100FF0000E0E0F0F0F1010111111121213131414E3
:10100000151516161717181819191A1A1B1B1C1D57
:101010001D1E1E1F202021222223242425262627B0
:101020002829292A2B2C2D2D2E2F303132323334E2
:1010300035363738393A3B3C3D3E3F4041424344E8
:1010400045464748494A4C4D4E4F505153545556CA
:1010500058595A5B5D5E5F616264656668696B6C76
:101060006D6F7072737577787A7B7D7E80828385F1
:1010700087888A8C8E8F91939596989A9C9EA0A231
:10108000A3A5A7A9ABADAFB1B3B5B7BABCBEC0C23B
:10109000C4C6C9CBCDCFD1D4D6D8DBDDDFE2E4E7FF
:1010A000E9EBEEF0F3F5F8FAFDFF11241FBECFEFE8
:1010B000DAE0DEBFCDBF11E0A0E0B1E0E6EFFFE592
:1010C00002C005900D92A23BB107D9F726E0A2EB32
:1010D000B1E001C01D92A73DB207E1F70E9474087C
:1010E0000C94F92F0C940000CF93DF93CDB7DEB7AB
:1010F000E0970FB6F894DEBF0FBECDBF85B780680E
:1011000085BF85B7806885BF84B7877F84BF0FB6EA
:10111000F894A89580916000886180936000109297
:1011200060000FBE90E080E80FB6F89480936100F5
:10113000909361000FBE82E897E19093B301809392
:10114000B2010E94C61D0E946C1E8091E200846064
:101150008093E2007894809189028823A1F0109115
:10116000E9001F709091EC00892F817090FD80E85C
:10117000182B1092E9008091E80083FD0E947523EE
:101180001F701093E90082E084BD93E095BD9AEF53
:1011900097BD80936E000E949426811102C00E9428
:1011A000842602E211E0A8E2CA2EA1E0DA2ED801DC
:1011B0008D918D018F3F11F00E94C717C016D10687
:1011C000B1F708E211E0F80181918F018F3F11F032
:1011D0000E94C717F1E00C321F07A9F786E0EDE087
:1011E000F2E0DF01282F1D922A95E9F7E4EBF1E008
:1011F000DF011D928A95E9F70E947819811102C0DA
:101200000E94841982E090E00E94172F8093BF0112
:101210000E9467199093BB018093BA010E947A1CC7
:10122000EFE3FCE93197F1F700C000000E947A1C5F
:1012300080910D0280FF08C06FEF7FEF80E090E0AB
:101240000E94492F0E94FC1F83E090E00E94172F0C
:1012500090E00E94DE2A80919302909194020E9475
:10126000631710920A0280E8809395020E94CC2DA9
:101270006DE070E085E491E00E942423892B09F061
:1012800043C080910A0263E070E081FD3AC082E4CD
:1012900091E00E942423892BB9F56DE070E082E390
:1012A00091E00E942423892B79F50E946320DC01C0
:1012B000CB01805A9541AF4FBF4F80936502909309
:1012C0006602A0936702B0936802E8E9F2E080E06A
:1012D00094E0DF019C011D9221503040E1F7F09332
:1012E0009F06E0939E068FEF9FEF90939702809367
:1012F000960281E080936A028093690210920B0249
:1013000003C08FE391E0C5CF8091BC01811133C050
:101310000E947819811104C00E9484190E94182D1E
:1013200088E090E00E941F2F6093C6067093C70666
:101330008093C8069093C9066E7F71F40E94182DA1
:1013400088E090E00E941F2F6093C6067093C70646
:101350008093C8069093C9060E947E2C1092A9061D
:101360008091C60680FF04C060E086950E94C82C6C
:1013700081E08093BC0181E08093C80154985C9A1D
:1013800056985E9A8FE891E00197F1F700C000004F
:101390003091C801E9ECF1E020E0231761F089B158
:1013A000829581704E9B02C092E001C090E0892B33
:1013B00081932F5FF2CF82E591E09093A106809315
:1013C000A00680E091E09093710280937002442423
:1013D0004394512CDE0111966D0180918902853074
:1013E00009F07DC0E0E4BE2EAA24A39400E112E13E
:1013F00080918902853009F05BC080918902843038
:1014000009F444C080E00E94BE101092A9068091A9
:10141000BE01811116C0A092BE018091C606982F10
:1014200091709093BD018E7F8093C606BFEFE0E779
:10143000F2E0B150E040F040E1F700C000000E944F
:10144000C8260E9415221092740228E130E00FB6DF
:10145000F894A895209360000FBEB092600083B707
:10146000817F846083BF83B7816083BF78948895D0
:1014700083B78E7F83BF0FB6F894A89580916000E4
:10148000886180936000109260000FBE8091880296
:10149000882309F4ADCF0E947A1CEDE0F2E081913F
:1014A00081117EC363E172E06E177F07C1F7A0CFA1
:1014B0000E94052B0E94F7200E94BE101092BE01D0
:1014C0008091BD01882349F08091C6068160809398
:1014D000C60660E086950E94C82C0E94F5290E94ED
:1014E0007A1C882E81110E946320ADE0B2E0E0EC0E
:1014F000F1E000E010E0302F2D919191922721F141
:1015000080E0BB24B394492F4B21D1F089A33AA3A7
:101510002B2181E009F480E08BA30E946F20816081
:10152000782F9DA38CA349A15AA16BA18DA10E94E4
:101530002110F801E054FE4F8081B826B08219C016
:101540008F5FBB0C8430F9F60F5F1F4F063011051B
:1015500091F68FEF8EA38FA318A60E946F20816053
:10156000782F9AA789A74EA15FA168A58AA50E9496
:1015700021108091A906882309F493C08091A806C0
:10158000E091C606E695E81BE093A406823059F484
:10159000F0E0E859FE4FE4910E2F10E071E5A72E20
:1015A00076E2B72E59C0863059F4F0E0EB59FE4F81
:1015B000E4910E2F10E061E4A62E66E2B62E4CC038
:1015C000893061F4E695F0E0EE59FE4FE4910E2F7C
:1015D00010E059EEA52E58E2B52E3EC08F3061F4D2
:1015E000E695F0E0E15AFE4FE4910E2F10E04BE853
:1015F000A42E48E2B42E30C0853159F4F0E0E45A0C
:10160000FE4FE4910E2F10E03DE3A32E38E2B32EFF
:1016100023C08831A1F0833249F4EAE5F1E0059175
:10162000149122E4A22E29E2B22E16C0843271F067
:1016300000ED17E090E4A92E96E2B92E0DC008E265
:1016400010E082ECA82E87E2B82E06C004EF11E06D
:10165000BAE8AB2EB7E2BB2E8091A506882361F0D5
:101660001092A5060E946F209093A3068093A20675
:101670001092A7061092A6060E946F20E091A20683
:10168000F091A3068E1B9F0B8F3F9F4750F40E0FC8
:101690001F1F1093A3060093A20682EA96E0F501AD
:1016A0000995712C912C8091C801781608F05AC0C8
:1016B000072D10E0E9B1E295E1704E9B02C092E087
:1016C00001C090E08E2F892BD801A753BE4FEC911B
:1016D0002E2F237030E0482F082E000C550B2417B6
:1016E0003507F1F1EE0FEE0FE82BEC93EF70F0E021
:1016F000E45DFE4F980129533E4F59019081D90175
:101700008C91890F8C93843064F0F801EA53FE4F7A
:1017100080818F5F8083711006C08AEA0E94172C37
:1017200002C020E001C021E0F50180818D3F64F41A
:10173000F801EA53FE4F808181508083711003C00D
:1017400089EA0E94172C21E0D5018C91082E000C0B
:10175000990B64E070E00E946B2FF5018083922A60
:101760007394A1CF91100E94632080916A02882314
:1017700009F453C088E992E090939F0680939E06F7
:101780009091930280919402E82EF12CE114F104DF
:1017900021F4E92EF82EE0E001C0E8E0C701A4E062
:1017A00096958795AA95E1F7009711F0EC5F7C017B
:1017B000C7019695879596958795009711F0EE5FEE
:1017C0007C01C70196958795892B09F408C2EF5FC4
:1017D00006C286E495E00E94062380E395E00E941D
:1017E000062385E295E00E9406238FE095E00E94A3
:1017F000062389EF94E00E94062383EE94E00E9482
:1018000006238DEC94E00E94062380916A028111E8
:10181000ECC1809169028111CEC2811001C091108A
:101820000E942F220E94F72090910C02891721F02C
:1018300080930C020E94BE1080918902843009F0CE
:10184000CCCD83E08093E9008091E80082FFC5CD94
:101850008091E80085FF22C00E94E51D81111CC017
:1018600000E210E0BE016F5F7F4F5B0108C0809116
:10187000F100D5018D935D010150110969F080914E
:10188000E80085FDF4CF8091E8008B778093E80035
:101890000E94E51D882399F391E001C090E08091BA
:1018A000E8008B778093E800992309F496CDE981CD
:1018B0008E2F90E0FC013197E331F10508F048C12B
:1018C000EA5AFF4F0C94A12F1A8289E0A7C08A819F
:1018D000823009F47BC1833051F0813009F038C186
:1018E0000E9463209B838C837D836E8333C18091B0
:1018F0000D028B8380910E028C8380910F028D8369
:10190000809110028E83809111028F838091120248
:10191000888720C18A81823009F01AC16B817C815D
:101920008D819E810E94A72F0E94552213C14C8158
:101930006B818A810E94D9219D834FC12D813E8177
:101940003227232732274C816B818A810E947D2197
:1019500001C10E94A421FEC08A818138B1F050F4F7
:10196000803809F0F7C020E04B816091C806809173
:10197000C70631C0823859F1833809F0EBC020E046
:101980004091C9066C818B8126C060E08B810E94EA
:10199000C82C9B818091C606911111C08E7F8093C7
:1019A000C6061092A906BFEFE0E7F2E0B150E040B2
:1019B000F040E1F700C000000E94C826CBC0816063
:1019C0008093C60660E086950E94C82CC3C08B81B8
:1019D0008093CA06BFC00E947C29BCC08A8181381E
:1019E00099F030F4803809F0B5C08091C90616C06E
:1019F000823891F0833809F0ADC08091C7068B839F
:101A00008091C8068C83A6C08091C60680FF02C064
:101A1000869504C080E002C08091CA068B839AC07C
:101A20006091C6067091C7068091C8069091C9065C
:101A30000E94912C8FC01A8289EDF0CF0A811B8100
:101A40001027012710278C80912C5601C801895D31
:101A50009C4F95012C193D092815390508F07AC0CD
:101A6000093D110530F40E94172FD50114968C936F
:101A700002C0F50114820F5F1F4FFFEFAF1ABF0ABC
:101A8000E5CF0A811B811027012710278C80912C1C
:101A90005601C801895D9C4F95012C193D092815F7
:101AA000390508F057C0093D110528F4D5011496F1
:101AB0006C910E942B2F0F5F1F4FBFEFAB1ABB0A19
:101AC000E8CF0E946D2146C080E18A8343C00A812D
:101AD0001B811027012710278C80912C5601C801EB
:101AE000879695012C193D092815390598F501159A
:101AF000E3E01E0730F40E94172FD50114968C9353
:101B000002C0F50114820F5F1F4FFFEFAF1ABF0A2B
:101B1000E6CF0A811B811027012710278C80912C8A
:101B20005601C801879695012C193D0928153905DC
:101B300088F4011523E0120728F4D50114966C915E
:101B40000E942B2F0F5F1F4FBFEFAB1ABB0AE9CFCD
:101B50008FEF898380918902843009F03ECC109107
:101B6000E9001F709091EC00892F817090FD80E852
:101B7000182B82E08093E9008091E80080FF0CC080
:101B800040E050E060E270E0C6010E944B2380918B
:101B9000E8008E778093E8001F701093E9001DCC59
:101BA00009BD19BD09B400FEFDCF8091D8008F7D1D
:101BB0008093D8008091E00082608093E000809163
:101BC000E00081FDFCCF0E94052B12CC86E290E064
:101BD0000E94172F1B821C821D828E83BBCF8E2FEB
:101BE00090E08B30910508F4FFC02091960230916F
:101BF00097022115310509F40CCE80910B02811159
:101C000008CE282E312C5201082E02C0AA0CBB1C73
:101C10000A94E2F7A9014A215B21452B11F48F5F59
:101C2000F0CF90910A02910166E0220F331F6A956E
:101C3000E1F790FD13C08295880F880F8074809320
:101C40000E01220F232F221F330B319520931101F8
:101C5000815C80930F011092120112C046E036950C
:101C600027954A95E1F7220F220F220F20930E01AC
:101C700010921101295F20930F0187E080931201D8
:101C800024E630E047E050E06CE071E088E70E9435
:101C9000772E892B09F0BDCD80910A0280FD23C0EB
:101CA000C10126E0880F991F2A95E1F7AC0148563B
:101CB0005D4F04E610E020E430E060E488E70E9435
:101CC000982E892B09F0A5CD0E942F22A094B094C4
:101CD0008091960290919702A822B922B092970221
:101CE000A092960296CD80E4EAECF1E0DF011D922D
:101CF0008A95E9F786E0220C331C8A95E1F7E4E443
:101D0000F1E0F8ABEFA74CE351E0AFA5B8A98D9196
:101D1000B8ABAFA7FA019191AF019101290F311D25
:101D2000B90168567D4F7EA76DA790E086539E4F00
:101D3000FC0177E09F01281B390B042D01C0000F27
:101D40002A95EAF7ADA5BEA5BCA7ABA710E0ABA549
:101D5000BCA56D91BCA7ABA76023272F211B2770C3
:101D6000722E022E000C330BB62F01C0BB0F7A94DB
:101D7000EAF77B2E3195219531092770332701C071
:101D800066952A95EAF7762A6081762A70821F5F27
:101D90001830E9F6715031967F3F61F6EFA5F8A94A
:101DA000EC54F14009F0B1CF04E610E020E430E05B
:101DB0004AEC51E082CF0E946320009165021091AD
:101DC00066022091670230916802DC01CB01801B22
:101DD000910BA20BB30B8F3F9F4FAF4FBF4708F044
:101DE0001CCD0E94152219CDFC01E759FF4F0C9420
:101DF000A12F8DEB94E00E94062387EA94E00E94D5
:101E000006238CE994E00E94062387E894E00E9470
:101E1000062382E794E00E9406238DE594E00E9469
:101E2000062388E494E0EFCC84E394E00E94062348
:101E30008EE194E00E94062382E194E00E94062352
:101E40008DEF93E00E94062388EE93E00E94062324
:101E500083ED93E00E9406238EEB93E0D4CC8CEAD2
:101E600093E00E94062386E993E00E9406238AE815
:101E700093E00E94062385E793E00E94062380E614
:101E800093E00E9406238BE493E00E94062386E3FE
:101E900093E0B9CC87E293E00E94062381E193E0CE
:101EA0000E94062385E093E00E94062383E093E0EE
:101EB0000E94062381E093E00E9406238FEF92E0C8
:101EC0000E9406238DEF92E09ECC8FEE92E00E945E
:101ED000062389ED92E00E9406238DEC92E00E9499
:101EE00006238BEC92E00E94062389EC92E00E948C
:101EF000062387EC92E00E94062385EC92E083CCD7
:101F000081EB92E00E9406238BE992E00E94062377
:101F10008FE892E00E9406238DE892E00E9406235B
:101F20008BE892E00E94062389E892E00E94062353
:101F300087E892E068CC84E792E00E9406238EE571
:101F400092E00E94062382E592E00E94062380E54B
:101F500092E00E9406238EE492E00E9406238CE425
:101F600092E00E9406238AE492E04DCC8AE392E05C
:101F70000E94062384E292E00E94062388E192E018
:101F80000E94062386E192E00E94062384E192E00B
:101F90000E94062382E192E00E94062380E192E003
:101FA00032CC82E092E00E9406238CEE91E00E9407
:101FB000062380EE91E00E9406238EED91E00E94C0
:101FC00006238CED91E00E9406238AED91E00E94A9
:101FD000062388ED91E017CC82EC91E00E94062365
:101FE0008CEA91E00E94062380EA91E00E94062399
:101FF0008BE891E00E94062386E791E00E94062389
:1020000080E791E00E9406238EE691E00E9406237D
:102010008CE691E0F8CB0E94052B2FEF84E39CE047
:10202000215080409040E1F700C000009AE088E134
:102030000FB6F894A895809360000FBE909360004F
:10204000FFCFA7E1B0E0E7E2F0E10C94E62E4B8B86
:102050005C8B6D8B7E8B8F8B611110925D0286E0A5
:102060009E01235F3F4FD901E82F1D92EA95E9F7C2
:1020700095E0FE017396D90101900D929A95E1F7D2
:102080009C894E895F897B897D879E876F87598B65
:10209000488BF901DE01179601900D928A95E1F7C0
:1020A000CE0107960E94F31A81113EC086E0FE0120
:1020B0003796DE01119601900D928A95E1F7FF8126
:1020C000E8856A857B856115710531F0EF3F31F454
:1020D00081E0FF3F19F403C081E001C080E080FD92
:1020E00023C02091220230E0C90101968770992710
:1020F0004091530250E08417950779F1F983EA8300
:102100007D836C8396E0929FD001939FB00D112444
:10211000AD5DBD4FFE01319601900D929A95E1F7AC
:10212000809322020E94731A16E0809153029091CC
:1021300022028917F9F0189FC00111248D5D9D4F6F
:102140000E94F31A8823B1F08091530290E0019627
:102150008770992780935302E8CF0E94052B109235
:10216000220210925302ECE1F2E086E0DF011D92C0
:102170008A95E9F76796E3E00C94022F81FB6627C6
:1021800060F980E00E9413290895A9E0B0E0EBEC2B
:10219000F0E10C94D82EFC0180819181238134815F
:1021A000232B31F09F3F31F491E08F3F19F403C0AE
:1021B00091E001C090E090FD82C67F0185E0DE01E4
:1021C000119601900D928A95E1F7F701228189819C
:1021D0009A81222349F00E94182A182F682F89819A
:1021E0009A810E947F2A03C00E944C2A182F69817D
:1021F0007A81812F0E9407228C01F7018281882336
:1022000009F4F5C0980122513F452031310508F00D
:102210000AC18FEF93E00E94172F8111F2C0025183
:1022200037E2832E33E0932E002379F08114F4E01B
:102230009F0609F4E6C0C4010E94172F811101C056
:1022400001502FEF821A920AEFCF1E821F8218864A
:102250001986442443942AE0322E84010F5F1F4FD5
:10226000C4010E94172F8E831F82882309F4C9C0DE
:102270009FEF980F933060F48F834E8232E0830E8D
:10228000911CC8010E94172F8887811102C0B9C014
:1022900048018E010A5F1F4FF80120812223E9F2D5
:1022A000213009F04CC08181813049F46801F2E0AD
:1022B000CF0ED11CF80182810E94172C0AC08230F7
:1022C00051F46801F2E0CF0ED11CF80182810E9426
:1022D0007B2B860189C0833049F46801F2E0CF0E80
:1022E000D11CF80182810E94222BF3CF843019F097
:1022F0000F5F1F4F79C0F80122810E5F1F4F80E0F2
:1023000090E030E0205331092A30310568F4389EDE
:10231000A001399E500D1124C901840F951F0F5F34
:102320001F4FF8012081EDCF009709F45DC0EFE960
:10233000FFE03197F1F700C000000197F5CFE22FE1
:10234000F0E0EA57FA4F5490822F8695869586954D
:1023500090E0FC01EA58FA4F64902770712C022E2D
:1023600002C0759467940A94E2F7F1E06F22772433
:10237000FC01EA59FA4FA490B12C022E02C0B59488
:10238000A7940A94E2F731E0A322BB24FC01EA5AA5
:10239000FA4FC490D12C02C0D594C7942A95E2F785
:1023A00081E0C822DD246114710419F081EE0E94DD
:1023B0007B2BA114B10419F086EE0E947B2B852D96
:1023C0000E94172CA114B10419F086EE0E94222B52
:1023D0006114710419F081EE0E94222BC114D10402
:1023E00019F08CE20E94172C0F5F1F4F55CF003160
:1023F0003FE5130709F08CC481E00E94BC2A0E94CB
:10240000142380915402877009F459C5F701828121
:10241000882309F454C58091BB0182FF50C582E036
:102420000E943A1A4CC50031FFE51F0711F481E004
:1024300005C001312FE5120721F482E00E94CE2A67
:10244000DECF033FFCE51F0749F406E221EE40EE34
:1024500063EF7CE5C7010E940421D3CF043F2CE544
:10246000120708F069C1083D3CE5130731F407E2A3
:1024700025EE45EE68ED7CE5EDCF093D9CE51907BD
:1024800031F408E221E045EE69ED7CE5E3CF073D5C
:10249000ECE51E0731F406E221EE41EE67ED7CE546
:1024A000D9CF882309F47DC110926D0203309DE5D8
:1024B000190758F40A3FECE51E0780F4C801825062
:1024C0009C45449708F057C109C00136FDE51F0738
:1024D00029F0053A2DE5120709F04DC10E94671950
:1024E0009093BB018093BA0101313CE5130709F4D5
:1024F000C9C008F043C009309CE5190709F49EC023
:1025000008F50530FCE51F0709F488C080F40330A6
:102510003CE5130709F47BC008F07DC002309CE560
:10252000190709F0F9C08091BA018160F3C0073042
:10253000ECE51E0709F47AC008F07CC08091BA016E
:102540008061E8C00D302CE5120709F489C058F409
:102550000B308CE5180709F47BC008F07DC0809132
:10256000BA01886071C00F30ECE51E0709F482C023
:1025700008F084C08091BA01877FCCC00D3F2CE564
:10258000120709F473C008F505318CE5180709F442
:1025900087C068F40331ECE51E0709F477C008F042
:1025A00097C00E94052B8091BA018F77B3C00B3F73
:1025B0002CE51207B9F108F056C00A3F8CE5180760
:1025C00009F0AAC08091BB0141C001309DE5190707
:1025D00009F48AC058F40F3FFCE51F0709F45BC0FB
:1025E00008F06AC08091BB01826030C001363DE5D1
:1025F000130709F47FC0053A8DE5180709F484C074
:1026000002309DE5190709F087C060E06EC0809137
:10261000BA0182607FC08091BA0116C08091BA0170
:10262000886078C08091BB0182604FC08091BA0100
:10263000806270C08091BA0180646CC00E94052BDA
:102640008091BA01806866C0846064C081603DC0CA
:102650008091BA018E7F5EC08091BA018D7F5AC091
:102660008091BA0116C08091BB0118C08091BB0156
:102670008D7F2BC08091BA018F7E4CC08091BA01B2
:102680008F7D48C08091BA018F7B44C08091BA0190
:10269000877F8B7F3FC08091BB018D7F8E7F15C070
:1026A0008091BA0182FB222720F991E0922790FBCA
:1026B00082F990FB83F92EC08091BB01982F9095F1
:1026C00091708E7F892B90FB81F98093BB0124C090
:1026D0000E94052B8091BA0187FB222720F991E007
:1026E000922790FB87F916C061E08EE090E00E948F
:1026F0002B2F12C08091BA0184FB222720F991E090
:10270000922790FB84F906C08091BA01982F90958A
:1027100090FB80F98093BA016091BA011091BB01DE
:1027200084E090E00E942B2F612F82E290E00E94D3
:102730002B2F0E94052B65CE053FFCE51F0731F4CA
:1027400006E221EE42EE65EF7CE584CE053F2CE506
:10275000120730F407E225EE44EE64EF7CE57ACE12
:10276000063F3CE5130709F09CCE07E225EE46EE56
:1027700066EF7CE56FCE06318CE5180721F5809178
:102780005E028A7A91E009F490E090931302882324
:1027900011F065E301C069E284E192E00E94B1209A
:1027A0000FC00631ECE51E0709F044C0809113020A
:1027B000882309F4B4C265E384E192E00E94A42076
:1027C0000E94FE191ECE0A353DE5130769F158F443
:1027D00001159CE5190781F00E3D1C4509F047C025
:1027E0000E94841917C00C35FDE51F07A9F0F0F011
:1027F000073A1D4579F03BC00E94052B8FEF94E30B
:10280000ECE081509040E040E1F700C000000E9401
:10281000FC1FF7CD0E940B108091BB0182FB882723
:1028200080F991E0892703C081E001C080E00E9427
:10283000571A1DC080915E0282720C3CECE51E07A7
:1028400009F41DC308F0A0C2063C2CE5120709F4E8
:1028500002C308F075C2033C9CE5190709F4F1C2F4
:1028600008F05FC2023CFCE51F0709F4C5C2F7018E
:10287000828100811181882349F0C8010E94182AB1
:10288000D82E682FC8010E947F2A04C0C8010E9468
:102890004C2AD82EB8018D2D0E9407220E94DE17E7
:1028A0008C01982EF701D280A580A2949FE0A922E6
:1028B000809154028770B9F0DD20A9F0812F807FCC
:1028C000803421F080E2800F883068F08091BB0175
:1028D00082FF09C082E00E943A1A809154028770F8
:1028E000CC24C3948111C12CB12EB2948FE0B822B4
:1028F0008B2D90E08C30910508F0E9C1FC01EC587B
:10290000FF4F0C94A12F812F807F1F70882311F01F
:102910001295107FDD20B9F0112309F4C6C180E2C1
:10292000800F883010F0911006C080915E02182B45
:1029300010935E0205C080915D02182B10935D021A
:102940000E94FE19B2C1802F0E94222B112309F48C
:10295000BEC1005E083078F1992069F11095809130
:102960005D02182310935D0229C0812F807F1F70A4
:10297000803211F01295107F992021F0F1E09F161E
:10298000D9F149C08091BB0182FD1BC0DD2069F0F7
:10299000112339F080915E02182B10935E020E9481
:1029A000FE1980E00E947B2B92C180E00E94222BC6
:1029B000112309F48CC1812F0E94F7190E94FE197E
:1029C00086C1DD2081F080915F02AA2051F021E0D4
:1029D000A21207C0182B181709F479C110935F02CF
:1029E00076C1812B10C0AA2021F031E0A31609F492
:1029F0006EC10E94F11927C0DD2041F085E08A15E3
:102A000008F465C1812F0E94182B61C194E09A15CA
:102A100008F45DC118C0DD2049F0AA2099F3F70140
:102A2000858180FF42C18F708583ECCFAA2059F049
:102A3000093309F049C1FFEF27EE33E0F1502040A0
:102A40003040E1F73FC1812F0E94112B40C1812FFF
:102A500086958695837019F0813059F038C1DD2054
:102A600019F0C801937002C080E090E00E94E1205C
:102A700036C1DD2019F0C801937002C080E090E0FB
:102A80000E94CB202CC1812F837009F041C0D1104E
:102A900022C1302F329536953770330F330F802F88
:102AA0008F7090E0032E02C0880F991F0A94E2F7FE
:102AB00004FF0BC04FE050E002C0440F551F3A9591
:102AC000E2F79A012095309502C020E030E016959B
:102AD00016951370123099F068F44091600250918D
:102AE0006102113029F0822B932B8423952304C09B
:102AF000842B952B822B932B0E94DE2AECC0822BF9
:102B0000932B209160023091610282279327F4CFAA
:102B1000DD2019F0812F817001C08695882309F48A
:102B2000DAC0302F329536953770330F330F802F40
:102B30008F7090E0032E02C0880F991F0A94E2F76D
:102B400004FF0BC04FE050E002C0440F551F3A9500
:102B5000E2F79A012095309502C020E030E016950A
:102B600016951370123079F0B8F440919302509199
:102B70009402113029F0822B932B842395230EC0CD
:102B8000842B952B09C0822B932B2091930230919B
:102B900094028227932702C0822B932B0E94B32A90
:102BA0009AC01F70DD2039F0812F0E94CE2A802F1D
:102BB0000E94182B90C0802F0E94112B812F0E9401
:102BC000BC2A89C0802F92EF9916A1F1991538F08F
:102BD000E0EF9E1659F0F1EF9F1639F162C023EF36
:102BE000921679F134EF9316E1F05BC0DD20A1F08D
:102BF00084E08A1508F46BC01F7181E090E0012E1B
:102C000002C0880F991F0A94E2F720919302309135
:102C100094028227932723C095E09A1508F457C0A1
:102C2000EBCF8091BB0182FD1DC0DD2029F0812FFB
:102C30008F712AC0DD20D9F3812F8F710E94BC2AA9
:102C400046C0DD2051F01F7181E090E0012E02C0EE
:102C5000880F991F0A94E2F702C080E090E00E947A
:102C6000B32A35C0DD2099F01F71812F0E94CE2A32
:102C70008091BB0182FF07C0E8E01E9FC0011124C4
:102C8000836080935402812F0E94CE2A20C081E06D
:102C90000E943A1AF1E0FA15D0F482E00E943A1A42
:102CA00016C0DD2021F0AA2011F2802F7BCEAA20B1
:102CB00019F2893349F42FEF37EE83E02150304089
:102CC0008040E1F700C00000802F0E94222B88EF97
:102CD0008B0D843020F40E94F7200E94BE10CC207F
:102CE00009F4EDC08091540280FDE9C0F701128221
:102CF0008595859585950E94CE2AC7010E94C510AD
:102D0000809154028595859585950E94BC2AD7C0EF
:102D100001319FE5190709F094CB82E06ECB69E29F
:102D20004BCD043C2CE5120709F490C0053C3CE572
:102D3000130709F09CCD4AE65CE264E77CE2A3C09D
:102D4000093C9CE5190709F490C078F4073CFCE5C0
:102D50001F0709F485C0083C2CE5120709F087CD50
:102D60004DE55CE260E57CE28EC00A3C3CE5130781
:102D700009F480C00B3C9CE5190709F078CD44EAC2
:102D80005CE266EB7CE27FC0013DECE51E0709F4E6
:102D900086C0A0F40E3C2CE5120709F47AC008F4B2
:102DA00075C00F3C8CE5180709F476C0003D9CE522
:102DB000190709F05CCD6EE089E079C0043DECE5CF
:102DC0001E0709F472C068F4023D2CE5120709F4ED
:102DD00069C0033D3CE5130709F049CD61E088E196
:102DE0006BC0053D8CE5180709F464C00D359DE501
:102DF000190709F406CB3BCD8091C60680FF1BC0A6
:102E00008E7F8093C6066091C6067091C70680913A
:102E1000C8069091C9060E94912C1092A906EFEF66
:102E2000F0E722E0E150F0402040E1F700C0000070
:102E30000E94C826E6CA81608093C60661E0869536
:102E40003BC043E05DE26DE07DE21DC04DE05DE230
:102E500063E07DE218C044E75CE26AE67CE213C00E
:102E600040E55CE26DE57CE20EC046E35CE263E4D3
:102E70007CE209C043E45CE266E37CE204C046EB2A
:102E80005CE264EA7CE20E94C126BBCA61E081E0A8
:102E900013C065E082E00BC068E086E008C064E132
:102EA0008FE005C067E185E102C062E289E10E942E
:102EB000AD26A7CA61E083E20E94C82CA2CA299667
:102EC000E1E10C94F42ECF93DF93EC01009729F00D
:102ED000BC0176956795617001C060E081E00E9459
:102EE0001329209739F0BE017695679576956795F9
:102EF000617001C060E082E00E941329CE01DF9181
:102F0000CF91089580E008959091BA0192FF0DC08D
:102F1000282F2871283019F4877F846006C0282F55
:102F20002471243011F48B7F886093FF0DC0282F0B
:102F30002871283119F4877E846106C0282F2471F6
:102F4000243111F48B7E88612091BB0120FF0DC0DC
:102F5000382F3871383019F4877F816006C0382FD8
:102F60003171313011F48E7F886021FF0DC0282F20
:102F70002871283119F4877E816106C0282F2171BC
:102F8000213111F48E7E886194FD877E0895F89436
:102F9000E82FE295EF70F0E031A1282F2F7081E04B
:102FA00090E001C0880F2A95EAF7982F9095932317
:102FB00091A392A1892B82A378940895CF93DF9354
:102FC0008238910569F1B0F48133910509F46FC03D
:102FD00048F48932910509F465C08A32910509F4F3
:102FE0006BC08AC08533910509F457C089339105B8
:102FF000B9F082C0833E910571F138F4803E9105AD
:10300000B1F0823E910511F177C0863E9105B9F18C
:10301000873E9105C9F1843E910509F06DC024C039
:103020002091BA0120FD53C021FD51C065C080919F
:10303000BA0180FD46C08091BB0180FF48C08091ED
:10304000BA0184FD3FC183EE90E03EC18091BA0198
:1030500082FF3AC0F4CF8091BA0182FD35C08091E1
:10306000BB0180FD34C0EBCF8091BB0181FF35C037
:103070008091BA0184FD26C187EE90E025C1809140
:10308000BA0183FF27C0F4CF8091BA0183FD22C02B
:103090008091BB0181FD21C0EBCF8091BA0185FDFC
:1030A0001FC021C08091BA0185FD1DC019C080914B
:1030B000BA0186FD1BC01DC08091BA0186FD19C0F2
:1030C00015C089E390E000C182EE90E0FDC080EE83
:1030D00090E0FAC086EE90E0F7C084EE90E0F4C095
:1030E00089E290E0F1C085E390E0EEC08AE290E0F2
:1030F000EBC081E390E0E8C0811532E5930708F06A
:1031000069C0811541E5940728F0982F8827816FC1
:10311000906ADAC0883E910568F5803E910508F016
:10312000D3C0883A9105B8F4853A910548F0855A9C
:10313000E82FF0E0E45BFE4F808190E09064C4C033
:103140008130910509F4BBC008F4BCC084309105FE
:1031500008F4B8C0B9C08F3B910508F0B3C0885AD5
:10316000E82FF0E0EE0FFF1FE15BFE4F80819181C1
:103170009464AAC0811520E59207F0F09C0174E0E8
:10318000369527957A95E1F7922F9370482F4370E3
:1031900021E030E002C0220F331F4A95E2F73C687D
:1031A000392B8F70982F9695969540E2949FC00189
:1031B0001124822B932B88C0811530E4930718F0DB
:1031C0009F70906A81C09C013A9521153F4108F497
:1031D0007BC078C0EC01C11586E5D807E8F5C115BC
:1031E00025E5D20748F08C2F0E9484178F7190E05C
:1031F000982F8827906268C0C11534E5D30728F05E
:103200009C2F8827846F906A5FC0AE01437055275A
:103210002C2F26952695C115D34578F481E090E0B2
:1032200002C0880F991F4A95E2F740E2249F90015F
:103230001124822B932B9C6847C081E090E002C050
:10324000880F991F4A95E2F740E2249F90011124CC
:10325000822B932B9A6838C0C1152AE5D207F8F45F
:10326000C11539E5D30790F08C2F8F700E94841719
:1032700094E0D695C7959A95E1F7CF70D0E0DC2F12
:10328000CC27D0699E01282BC9011EC0C11548E575
:10329000D407C0F09C2F8827806F906A15C0CE019C
:1032A00090568115904270F48D2F8F710E94841773
:1032B000282F2F71CE0199279062922B05C081E0B3
:1032C00090E002C080E090E0DF91CF910895CF932D
:1032D00084E090E00E94172FC82F82E290E00E94C5
:1032E000172F2C2F30E0A901582BCA01CF91089538
:1032F00080E090E00E94252F883E9E4F19F40E94A6
:103300009426089580E0089568EE7EEF80E090E0D6
:103310000E94492F60E082E090E00E942B2F60E045
:1033200083E090E00E942B2F1092610210926002C5
:1033300060E084E090E00E942B2F64E082E290E065
:103340000E942B2F60E085E090E00E942B2F60E030
:1033500086E090E00E942B2F6FEF87E090E00E94C4
:103360002B2F40E050E0BA0188E090E00E943D2F12
:1033700060E08DE090E00E942B2F40E050E0BA0129
:1033800088E190E00E943D2F60E087E190E00E949C
:103390002B2F40E050E0BA018CE190E00E943D2FDD
:1033A00060E070E080E290E00E94492F40E050E051
:1033B000BA0188E190E00E943D2F80E00E946526DE
:1033C0000E94842640E050E0BA018FE090E00E9425
:1033D0003D2F40E050E0BA0183E190E00E943D2F94
:1033E000089580915F02811110925F020895809587
:1033F00090915E02892380935E02089590915E020F
:1034000080915D02982B9093140280915F02882333
:1034100089F0892B80931402E6E1F2E097E080E0E6
:10342000915029F021912223D9F38F5FF9CF811197
:103430000E94F11948E050E065E572E084E192E015
:103440000E94EC2F892BA9F088E0E4E1F2E0A5E5E9
:10345000B2E001900D928A95E1F7E0917002F0914F
:103460007102309731F00280F381E02D84E192E027
:1034700009950895209154028095822380935402E7
:10348000982F977099F430E0482F082E000C550BB8
:103490002417350759F09091BB0192FF07C085951D
:1034A000859585950E94BC2A109254020895CF9369
:1034B000C091BB01C2FB992790F9981791F080FB4E
:1034C000C2F9C093BB016091BA0184E090E00E9410
:1034D0002B2F6C2F82E290E00E942B2F82E00E9423
:1034E0003A1ACF9108958091530290912202891740
:1034F00019F08F5F8770FBCF08950F931F93CF93C1
:10350000DF938091210282958F7009F05AC08091DB
:103510001E02882309F455C08091530210912202A3
:1035200060911C0270911D02C0911F02D091200277
:1035300091E06F3F09F090E0292F06E0811709F430
:1035400040C0209721F07F3F21F030E003C031E000
:1035500001C0322F90E030FD31C0089FF001099F7B
:10356000F00D1124DF01AD5DBD4F11963C91119717
:10357000371324C03C91361321C012963C91129708
:1035800031111CC013964D915C9114974C1B5D0B2F
:10359000483C510598F4809121028F70806180939E
:1035A0002102E85DFD4F80818F70806180838CE116
:1035B00092E00E94C5100E94731A03C001968770A2
:1035C000BDCFDF91CF911F910F910895CF93DF93DE
:1035D000EC010E94182ABE010E9407220E94DE17F9
:1035E000DF91CF910895A1E1B0E0E9EFFAE10C9409
:1035F000DE2E8C0185E0F801DE011D9601900D9212
:103600008A95E1F7F801E28090911C0260911D0219
:1036100040911F02509120024115510531F06F3F3A
:1036200031F481E09F3F19F403C081E001C080E0E4
:10363000F82FF1709F2E80FD1BC1F8013081218190
:10364000C380D4808CE1A82E82E0B82EF0901E02B8
:10365000F601E41BF50BFF2009F4C7C0809121029D
:10366000E83CF10508F092C0482F407F09F051C0B6
:10367000621311C093130FC0FE2CE1100CC08F70A9
:10368000806180932102C5010E94C51080912102B2
:10369000F80185832AC1C114D10431F02F3F31F4E0
:1036A00081E03F3F19F403C081E001C080E080FD6C
:1036B00003C081E08E2502C080E090E0F82FF17019
:1036C000FF2E80FF1CC0809153024091220256E0E1
:1036D000841709F4E8C090E0589FF001599FF00D5D
:1036E0001124ED5DFD4F6181261306C060816313D7
:1036F00003C06281E61203C001968770E9CFFE2CF9
:10370000EE2009F4F2C080912102816080932102B1
:1037100049C0621306C0931304C0E11002C0F8014F
:1037200086C0C8010E94E52A882351F1EE2041F1AC
:1037300020912102822F82958F7090E0029774F081
:1037400080911C0290911D0298878F831986DB86D9
:10375000CA862C87CE0107960E94C51086E0F80124
:10376000ACE1B2E001900D928A95E1F70E947D1ADA
:103770000AC06217C9F0C8010E94E52A81111EC063
:10378000C8010E94C510FF24F394AFC0482F407FAA
:1037900081F78CE192E00E94C51086E0F50111925C
:1037A0008A95E9F7F12CA1C09313E5CFE110E3CF9F
:1037B000F8018583C8010E94C51054C0EE2001F3B2
:1037C00020912102822F82958F7090E0029734F22F
:1037D00080911C0290911D029A8389831B82DD8255
:1037E000CC822E83CE010196B7CFE83CF105D0F50F
:1037F000FE2CEE2029F2621327C0931325C02091DE
:10380000210220FD18C0822F82958F70482F50E032
:103810004115510581F0F80125834F30510541F0E4
:103820008F5F982F9295907F822F8F70892B858341
:10383000C8010E94C51086E0F801ACE1B2E0019039
:103840000D928A95E1F751C0C8010E94E52A8111C5
:1038500085CF80912102816080932102C8010E945E
:10386000C51043C086E0F50111928A95E9F73DC085
:10387000EE2009F485CFC8010E94E52AF82E88239E
:1038800009F47ECF86E0F801ACE1B2E001900D9240
:103890008A95E1F780911C0290911D020E94E61A20
:1038A0000E947D1A22C03D872E878D859E850E94AD
:1038B000E61A292F22952F70223028F49F7039F0B4
:1038C000811105C00BC0243028F49F7049F4805E3C
:1038D000883020F0C8010E94C5109F2CF92C05C02B
:1038E000F8019581907F99F7F9CF8F2D6196EBE0E4
:1038F0000C94FA2EA6E0B0E0E0E8FCE10C94DC2E9B
:10390000AE014F5F5F4F7A0186E0FA0111928A950E
:10391000E9F702E211E06A0188E2A82E81E0B82E00
:1039200088248394912CF80180818F3F09F441C051
:10393000F894E82FE295EF70F0E021A18F70A401D8
:1039400002C0440F551F8A95E2F7CA01922F982BA7
:1039500091A392A18095892382A3789400C0E8E284
:10396000F1E0712C31E021912F3F89F0A22FA29537
:10397000AF70B0E090968C9190E02F7002C095955A
:1039800087952A95E2F780FD02C0832F01C080E071
:10399000782A330F51E0EC32F50729F7F8018081DE
:1039A0008F3F11F00E94C717F0EAFA95F1F7F60180
:1039B00070820F5F1F4FFFEFCF1ADF0AA016B1060C
:1039C00009F0B1CF46E050E0B70184EB91E00E94EE
:1039D000EC2F11E0009709F410E0892B89F086E0C4
:1039E000F701A4EBB1E001900D928A95E1F781E037
:1039F000809364020E946F2090936302809362021E
:103A0000809164028823A1F0809162029091630208
:103A10000E945420059760F0E4EBF1E0ADE0B2E0E5
:103A200081918D9341E0EA3BF407D1F71092640253
:103A3000812F2696EDE00C94F82E0895089580913C
:103A40007E0208958093790270937B0260937A02DC
:103A5000809189028430F9F48093E9008FEF90918E
:103A6000E800815095FD06C095ED9A95F1F70000AC
:103A70008111F5CF8091E80085FF0DC040E050E056
:103A800063E070E089E792E00E944B238091E800B8
:103A90008E778093E8000895BC0184E00E94221D87
:103AA0000895BC0183E00E94221D0895CF93DF9307
:103AB00021E02093E9002FEF3091E800215035FDFF
:103AC00006C035ED3A95F1F700002111F5CF2091B0
:103AD000E80025FF14C0EC0140E050E068E070E031
:103AE0000E944B238091E8008E778093E80088E065
:103AF000FE01AFE7B2E001900D928A95E1F7DF9108
:103B0000CF9108951F920F920FB60F9211242F9309
:103B10003F934F935F936F937F938F939F93AF9355
:103B2000BF93CF93DF93EF93FF93C091E900CF70E2
:103B30008091EC00D82FD17080FDD0E81092E90080
:103B40008091F000877F8093F00078940E94752325
:103B50001092E9008091F00088608093F000CD2BF6
:103B6000CF70C093E900FF91EF91DF91CF91BF91AA
:103B7000AF919F918F917F916F915F914F913F9105
:103B80002F910F900FBE0F901F901895E8EDF0E069
:103B900080818E7F80831092E2001092DA00109272
:103BA000E100A0EEB0E08C9181608C9380818F77F2
:103BB000808319BCA7EDB0E08C918E7F8C938081BF
:103BC0008F7E808310927C0208952091E4003091D2
:103BD000E50095E64091EC00842F817040FF23C002
:103BE0008091E80080FD1DC080918902882399F0B2
:103BF000853099F08091EB0085FD11C04091E40083
:103C00005091E5002417350729F3915011F09A01DE
:103C1000E1CF84E0089582E0089583E0089581E093
:103C2000089580E008954091E80042FFDDCF0895B7
:103C300080918B0287FF11C08091E80082FD05C052
:103C4000809189028111F8CF11C08091E8008B77B3
:103C50000BC080918902882349F08091E80080FFA1
:103C6000F8CF8091E8008E778093E8000895982F30
:103C7000973068F59093E900981739F07091EC004F
:103C80002091ED005091F00003C0242F762F50E0DA
:103C900021FD02C09F5FECCF3091EB003E7F30935F
:103CA000EB003091ED003D7F3093ED003091EB0063
:103CB00031603093EB007093EC002093ED00509353
:103CC000F0002091EE0027FDE5CF80E008958F7091
:103CD0008093E90081E00895A0E0B0E0E2E7FEE132
:103CE0000C94E12EC8EDD0E088818F7E8883E7EDCB
:103CF000F0E080818160808384E082BF81E08093F6
:103D00007C0288818E7F888302EE10E0F8011082A9
:103D10001092DA0081EEC82ED12CF6011082888133
:103D20008F77888388818068888388818F7D888366
:103D300019BC1092890210928A0210928802109285
:103D4000870290EEE92EF12CF70180818B7F808332
:103D500088818160888342E060E080E00E94371EB5
:103D6000F60180818E7F8083F8018081816080836D
:103D7000808188608083F70180818E7F8083888145
:103D800080618883CDB7DEB7E8E00C94FD2E1F92EA
:103D90000F920FB60F9211242F933F934F935F937F
:103DA0006F937F938F939F93AF93BF93EF93FF9303
:103DB0008091E10082FF09C08091E20082FF05C08E
:103DC0008091E1008B7F8093E1008091DA0080FF99
:103DD0002AC08091D80080FF26C08091DA008E7FB3
:103DE0008093DA008091D90080FF18C080E189BDFE
:103DF00082E189BD09B400FEFDCF81E08093890294
:103E000080917C0281110FC00E94C61D0E946C1E11
:103E10008091E20084608093E20005C019BC10929A
:103E2000890210927C028091E10080FF17C080918E
:103E3000E20080FF13C08091E2008E7F8093E20059
:103E40008091E20080618093E2008091D8008062DE
:103E50008093D80019BC85E0809389028091E100AD
:103E600084FF30C08091E20084FF2CC080E189BDD6
:103E700082E189BD09B400FEFDCF8091D8008F7D1D
:103E80008093D8008091E1008F7E8093E100809143
:103E9000E2008F7E8093E2008091E2008160809357
:103EA000E20080918A02882311F084E007C08091AB
:103EB000E30087FD02C081E001C083E080938902B6
:103EC000809189028091E10083FF27C08091E20008
:103ED00083FF23C08091E100877F8093E10082E02F
:103EE0008093890210928A028091E1008E7F8093F4
:103EF000E1008091E2008E7F8093E2008091E200F9
:103F000080618093E20042E060E080E00E94371E22
:103F10008091F00088608093F000FF91EF91BF9155
:103F2000AF919F918F917F916F915F914F913F9151
:103F30002F910F900FBE0F901F9018952091910216
:103F4000309192022617370748F06115710539F450
:103F50002091E8002E772093E80001C0B901FC0110
:103F600020E06115710579F1809189028823F1F1D2
:103F70008530F1F18091E80083FD3CC08091E8003C
:103F800082FD2EC08091E80080FFEBCF2091F300EE
:103F90008091F20090E0922B6115710551F088300C
:103FA000910538F421912093F10061507109019637
:103FB000F3CF21E0089709F020E08091E8008E77A8
:103FC0008093E800CECF2111CFCF0AC08091890223
:103FD000882361F0853061F08091E80083FD0AC09C
:103FE0008091E80082FFF2CF80E0089582E008959A
:103FF00083E0089581E00895F89481E08093E000E3
:1040000080E28093D800E9ECF0E010828FE19EE43A
:104010000197F1F700C000001DBA109268001CBCA7
:1040200010BE1FBA10927A0010926E0010926F00AC
:1040300010927100109272001082ECEBF0E010828E
:1040400014B817B81AB81DB810BA108215B818B835
:104050001BB81EB811BA0C94003F089578941F92B3
:104060000F920FB60F9211248F939F93AF93BF932C
:104070008091750290917602A0917702B0917802BA
:104080000196A11DB11D8093750290937602A093B5
:104090007702B0937802BF91AF919F918F910F906B
:1040A0000FBE0F901F9018959C014FB7F894809108
:1040B000750290917602A0917702B09178024FBF7D
:1040C000821B930B08952FB7F8946091750270913D
:1040D000760280917702909178022FBF08952FB7D2
:1040E000F8948091750290917602A0917702B09138
:1040F00078022FBF08951F920F920FB60F921124CE
:104100008F939F93AF93BF9380917402811113C0DB
:104110008091750290917602A0917702B091780219
:104120004196A11DB11D8093750290937602A093D4
:104130007702B0937802BF91AF919F918F910F90CA
:104140000FBE0F901F9018959C012A5F3F4FFC01F6
:104150004281461301C01282019682179307B9F774
:1041600008959C01FC0132969FEF80E04191461733
:1041700089F09F3F19F4411101C0982F8F5F86305D
:10418000A9F79F3F39F0F901E90FF11D97FDFA9565
:104190006283089508952091720230917302281766
:1041A000390771F09093730280937202E09170026C
:1041B000F0917102309721F00084F185E02D09958E
:1041C000089520916E0230916F022817390771F01F
:1041D00090936F0280936E02E0917002F0917102F1
:1041E000309721F00680F781E02D09950895E09140
:1041F0007002F0917102309729F00190F081E02D6A
:104200000995089580E008950F931F93CF93DF934E
:10421000C42FD22FFC0182818823B1F040936D021C
:104220000E946F2090936C0280936B0280E28C0F4F
:10423000883008F04DC0C77081E001C0880FCA9572
:10424000EAF70E94182B44C080916D02481330C0D9
:1042500080916B0290916C020E945420883C9105E1
:1042600038F510E21D0FCD17B9F080E28C0F8830C1
:1042700040F4C77081E001C0880FCA95EAF70E9438
:10428000112B183010F581E09D2F977001C0880F19
:104290009A95EAF70E94182B802F0E94172C18304D
:1042A000B8F4D77081E001C0880FDA95EAF70AC048
:1042B00080E28C0F883060F4C77081E001C0880F05
:1042C000CA95EAF70E94112B03C0802F0E94172C79
:1042D000DF91CF911F910F910895CF93DF93C7E2A4
:1042E000D3E060E0CE010E942B2F2196C11584E01F
:1042F000D807B9F7DF91CF9108951F93CF93DF933C
:10430000962F8031E8F46630D8F44430C8F4632F37
:10431000122FC42FD0E0CC0FDD1F28E0929FC00DDC
:10432000D11D112490E3899FC00DD11D1124CE0110
:1043300087960E942B2F612FCE0188960E942B2FEB
:10434000DF91CF911F910895A0E0B0E0EAEAF1E299
:104350000C94DF2EA12CE12CF12CB12C00E010E00C
:10436000C0E0D0E06701C00ED11EF601EC0FFD1FCA
:10437000EE0FFF1FE65FF94F259134914C2F6B2D07
:104380008A2D0E947D212196C430D10571F70C5FE2
:104390001F4FB39486E0B812E3CF88E1E80EF11C1A
:1043A000A39480E1A812D9CFCDB7DEB7EAE00C9490
:1043B000FB2E0F931F93CF93DF93803108F5663068
:1043C000F8F44430E8F4C42FD0E0CC0FDD1F28E02F
:1043D000629FC00DD11D112430E3839FC00DD11DFC
:1043E0001124CE0187960E94172F90E0182F0027E6
:1043F000CE0188960E94172F9801282BC90102C070
:1044000080E090E0DF91CF911F910F91089580316E
:1044100048F4763038F4643028F4462F672F0E9431
:10442000D921089580E090E0089580916A029091EA
:104430006902882389F0992369F062E070E088E0DE
:1044400096E00E942423892B19F080916902089537
:10445000109269029091690281E089270895809104
:104460006A028823F9F00E946320DC01CB01805AA4
:104470009541AF4FBF4F8093650290936602A09322
:104480006702B09368028091690281110BC062E0FB
:1044900070E086E096E00E942423892B19F481E0E5
:1044A0008093690280916902089586E290E00E94FB
:1044B0002B2F0895CF93DF93C0919E06D0919F0636
:1044C0008A30B1F420919502CE0188599240622F32
:1044D00070E00E94C32E281B822F66E00E945F2F8F
:1044E000C82FC15008F48FC080E20E945A22F9CF31
:1044F0008D30E9F4C859D24020919502622F70E0C6
:10450000CE010E94C32E281B822F9E01280F311D31
:104510002115344018F080E0C0E0D0E0C80FD11D74
:10452000C856DD4FD0939F06C0939E066CC096E0A0
:10453000FE01A8E9B6E001900D929A95E1F7803E60
:1045400030F086E0FE0111928A95E9F70BC0F6E0A3
:104550008F9FB0011124635A764F46E050E0CE01A0
:104560000E940E2FC0919E06D0919F0646E050E01B
:10457000BE0188E996E00E94EC2F892B49F19E014B
:1045800028593240A90186E0569547958A95E1F76A
:1045900081E090E0BC0102C0660F771F4A95E2F708
:1045A0004091960250919702462B572B2B5F3F4F1D
:1045B00066E0369527956A95E1F702C0880F991F46
:1045C0002A95E2F7842B952B90939702809396027D
:1045D0009E012259324040919502642F70E0C9013A
:1045E0000E94C32E481B463010F4240F311D2115A4
:1045F00084E0380710F020E030E028563D4F30933B
:104600009F0620939E06DF91CF910895CF93DF936D
:10461000EC01FE018491882321F00E945A22219608
:10462000F8CFDF91CF9108958091930290919402F9
:104630009C01267033272630310511F4886001C0B3
:10464000877F0E94B32A0895EF92FF920F931F93E2
:10465000CF93DF93EC017B0164E670E088E70E9472
:10466000D22D8C01EC0EFD1ECE15DF0561F017FD7D
:104670000AC0FE01849164E670E00E94472E8C011E
:104680002196892B89F30E94BF2EC801CDB7DEB7D2
:10469000E6E00C94FF2EEF92FF920F931F93CF93BF
:1046A000DF937C018B010E94E51D811119C0E70198
:1046B00001151105A1F08091E80085FD0AC08091E7
:1046C000E8008E778093E8000E94E51D882381F33F
:1046D00007C089918093F10001501109E9CF80E072
:1046E000CDB7DEB7E6E00C94FF2EAAE2B0E0EBE730
:1046F000F3E20C94E62EEBE8F2E083E992E02091FD
:10470000F10021938E179F07D1F780918C0283309F
:1047100009F463C030F4813071F0823009F49DC037
:10472000B4C08A3009F489C08B3009F46EC0893076
:1047300009F0ABC020C080918B02813A09F0A5C07E
:104740008091E800877F8093E80080918F029091AC
:104750009002892B21F468E08FE792E003C060E0CB
:1047600080E090E070E00E949E1F8091E8008B77CF
:104770008093E8008AC080918B02813209F085C065
:1047800080918F0290919002009719F0029709F0A2
:104790007CC08091E800877F8093E8008091E800EA
:1047A00082FD05C0809189028111F8CF6EC02091F1
:1047B000F3008091F20090E0922B029731F4809107
:1047C000F100813011F0863021F48091F100809366
:1047D0007E028091E8008B7754C080918B02813AF1
:1047E00009F053C080918F0290919002892B09F0BB
:1047F0004CC08091E800877F8093E8008091E800BA
:1048000080FFFCCF8091130137C080918B028132F1
:10481000E1F580918F0290919002892BB1F5809102
:10482000E800877F8093E8000E94181E80918D0227
:10483000809313010E94052B28C080918B02813246
:1048400021F58091E800877F8093E8000E94181E80
:1048500080918E0280937D0218C080918B02813AF4
:10486000A1F48091E800877F8093E8008091E800C0
:1048700080FFFCCF80917D028093F1008091E80061
:104880008E778093E8000E94181E8091E80083FFD5
:10489000DFC180918B0290918C02492F50E04A3009
:1048A000510508F0D5C1FA01E058FF4F0C94A12F33
:1048B000803821F0823809F0CBC108C0809187028E
:1048C00090918802992389F082600FC080918F02B5
:1048D0008F70873008F0BCC18093E9008091EB00B5
:1048E00085FB882780F91092E9009091E800977F76
:1048F0009093E8008093F1001092F10070C1282F8E
:104900002D7F09F0A5C1882319F0823061F0A0C184
:1049100080918D02813009F09BC1933009F080E0D5
:10492000809388022EC080918D0281112AC08091CF
:104930008F028F702FEF280F263008F089C18093E7
:10494000E9002091EB0020FF1CC0933021F48091FE
:10495000EB00806214C09091EB0090619093EB00AB
:1049600021E030E0A90102C0440F551F8A95E2F70B
:104970004093EA001092EA008091EB0088608093F7
:10498000EB001092E9008091E800877F8093E800B7
:104990000E94181E5DC181115BC110918D021F77AD
:1049A0008091E3008078812B8093E3008091E80080
:1049B000877F8093E8000E94181E8091E80080FFA6
:1049C000FCCF8091E30080688093E300111102C066
:1049D00082E001C083E0809389023AC1805882302E
:1049E00008F036C120918D0230918E022C3D53E0AB
:1049F000350779F583E08A838AE289834FB7F89493
:104A0000DE01139620E03EE051E2E32FF0E0509308
:104A10005700E49120FF03C0E295EF703F5FEF7015
:104A20008E2F90E0EA3010F0C79601C0C0968D93AB
:104A30009D932F5F243149F74FBF8091E800877F16
:104A40008093E8006AE270E0CE0101960E949E1F0A
:104A5000B4C080918F0290919002432F552743302C
:104A60005105A9F068F44130510509F400C1423004
:104A7000510509F0EDC08BE590E0EEEAF8E04BC09F
:104A80004132510529F14232510589F1E1C0C90194
:104A9000992781309105A1F058F0029709F0D8C00C
:104AA000EBE1F9E0E4918E2F90E0EBE1F9E030C02A
:104AB000E9E5F9E0E4918E2F90E0E9E5F9E028C01E
:104AC000E7E3F9E0E4918E2F90E0E7E3F9E020C01E
:104AD0008330910508F0BCC0880F991FFC01EA578C
:104AE000FE4F0190F081E02D89E090E014C083300A
:104AF000910508F0ADC0FC01EE0FFF1FE058FE4F1E
:104B00000190F081E02DDC01A358BE4F8C9190E024
:104B1000009709F49DC02091E800277F2093E800CA
:104B200020919102309192022817390708F4C901A7
:104B300040E0009789F120918902222309F43DC0C9
:104B40002530D9F12091E80023FD37C02091E800FD
:104B500022FD2FC02091E80020FFEBCF4091F30011
:104B60002091F20030E0342B009759F028303105C5
:104B700040F444914093F100319601972F5F3F4FED
:104B8000F3CF41E02830310509F040E02091E80002
:104B90002E772093E800CDCF4111CDCF0AC0809170
:104BA0008902882351F0853041F08091E80083FD2F
:104BB00004C08091E80082FFF2CF8091E8008B77FB
:104BC0008093E80045C0803809F042C08091E80039
:104BD000877F8093E80080918A028093F100809122
:104BE000E8008E77D3CE811133C080918D029091F1
:104BF0008E029927029764F58091E800877F809361
:104C0000E80010918D0210938A020E94181E111163
:104C100006C08091E30087FD02C081E001C084E00E
:104C20008093890242E061EC81E00E94371E42E2FB
:104C300061EC84E00E94371E42E261EC82E00E9457
:104C4000371E42E260EC83E00E94371E80918902A9
:104C50008091E80083FF10C08091E800877F8093F7
:104C6000E8008091EB0080628093EB0005C082E158
:104C700090E0E9E0F9E04FCFAA96E3E00C94022F30
:104C80000895CF93DF93EC01E6ECF6E04381628177
:104C90008C810E94B42D8C818F5F8C83DF91CF91AA
:104CA0000895CF93DF93EC01EC81F0E0E655F14FEE
:104CB0004491E6ECF6E0628181810E94B42D8C8102
:104CC0008F5F8C83DF91CF910895CF93C82F81118F
:104CD00002C06FEF01C062E283E290E00E942B2FDE
:104CE000C11102C06FEF01C067E084E290E00E9452
:104CF0002B2FC11102C06FEF01C068E185E290E087
:104D00000E942B2FCF91089580E00E94652660E0DD
:104D100070E0CB010E9455220E94A4210E946D21C7
:104D200081E00E946526089583E290E00E94172F9B
:104D3000823281F484E290E00E94172F873051F490
:104D400085E290E00E94172F91E0883109F090E011
:104D5000892F01C080E0817008959091C60690FF70
:104D600004C09695981748F003C0811106C090E0E2
:104D7000961718F40E940D2D089561E00E94C82C2A
:104D80000895882311F0FA0101C0FB0109950895E7
:104D9000A8E1B0E0EEECF6E20C94DB2E8091C606C2
:104DA000982F917080FF08C08090A0069090A10677
:104DB0008114910469F424C0EEEAF6E026EC36E0B2
:104DC00011821082128233962E173F07C9F7ECCF5B
:104DD0009923B1F0A12CB12C66246394712C2091FD
:104DE000AA06C3010A2C01C0880F0A94EAF782239D
:104DF00009F444C0F401C590D490C114D10469F4FD
:104E000002EA1EE09E012F5F3F4FAE01475E5F4FFB
:104E1000B90140C0F5E0CF0ED11C45E050E0B6012D
:104E2000CE0101960E940E2F09810F3F39F110E04B
:104E30008A819801280F311DC9012930310514F0EC
:104E400088E090E07C01EE0CFF1C8E0D9F1DFC01A4
:104E5000E255F94F7F01C801880F991F080F191FEC
:104E60000255194F0E151F05A8F698014D816C814A
:104E70008B810E94282D0D5F1F4FF4CF22E0820E00
:104E8000911C3FEFA31AB30A88E0A816B10409F0F9
:104E9000A6CFB6CFF801849190E0DC01AA0FBB1F2A
:104EA0008A0F9B1FDC01A255B94F8D919D91AC914A
:104EB000FB0181939193A193BF010F5F1F4F4E1789
:104EC0005F0741F7539A8BB1877F9BB198606FB7AB
:104ED000F8942417350799F0F90171919F01E8E0E2
:104EE0009BB9000000C077FF8BB9770F000000C0AE
:104EF00000C000C08BB900C0EA9591F7EACF6FBF40
:104F00008FE594E00197F1F700C000006896EEE0AD
:104F10000C94F72EEF92FF920F931F93CF93DF9392
:104F20008C01CEEAD6E0E12CF12CF8018481F4E08A
:104F3000EF16F1041CF4882339F002C0811104C07B
:104F40009E014091C90602C09E0140E06091C806E2
:104F50008091C7060E94282D8FEFE81AF80A239641
:104F600098E0E916F10409F70E94C826F801848147
:104F700090E00196817099278483CDB7DEB7E6E093
:104F80000C94FF2EA0E0B0E0E8ECF7E20C94DD2EEC
:104F9000EC014C81042F10E09801D8010E94B62F3B
:104FA0009B01AC010E94CC2F6B017C01E0E2F0E0A0
:104FB000E01BF10BA5E5B0E09B01AC010E94CC2FFA
:104FC0004B015C019F01DF010E94AE2F9B01AC01F0
:104FD0000E94D72F9B01AC012C0D3D1D4E1D5F1D66
:104FE000C501B4010E947F2F822FF22E99E2921701
:104FF00028F093E0299F900111240DC025E530E0B1
:10500000281B3109C901880F991F280F391F37FF45
:1050100002C02F5F3F4F35952795122F10959EEABE
:10502000C92E96E0D92E00E085E5E82EEF1801FDA7
:1050300002C08E2D01C08F2D9601412F6091C806B0
:105040000E94282D0F5F83E0C80ED11C083079F72D
:105050000E94C8268C81811102C091E003C0803279
:1050600019F49FEF9093210190912101890F8C8376
:10507000CDB7DEB7ECE00C94F92E0F931F93CF93CE
:10508000DF93CEEAD6E0FE011182108212823396BF
:1050900086E0E63CF807C1F700E010E08091AC063E
:1050A000082E000C990B0817190794F08091200125
:1050B000082E000C990B8017910754F09E01409127
:1050C000C9066091C8068091C7060E94282D03C0BA
:1050D000198218821A820F5F1F4F2396083011051C
:1050E000E9F60E94C82680911F019091AC06980FA6
:1050F0009093AC0620912001280F209320011216D6
:1051000014F497301CF0819580931F01DF91CF91AB
:105110001F910F910895A0E0B0E0E1E9F8E20C944E
:10512000E12EFC01828180FF03C0DD24DA9402C0FD
:10513000DD24D394CEEAD6E000E010E01982188294
:105140001A8294E0E92EF12CC12C8091AB068C0DD3
:10515000893014F0877002C087FD885F082E000C2C
:10516000990B0817190791F48091C9068E9DA0012B
:105170008F9D500D112455954795559547959E0146
:105180006091C8068091C7060E94282DCD0CF1E0E1
:10519000EF1AF108D1F60F5F1F4F23960830110563
:1051A00069F60E94C8268091AB0691E0D91206C02C
:1051B000811102C087E006C0815004C090E00196D2
:1051C000877099278093AB06CDB7DEB7E8E00C94E3
:1051D000FD2EEF92FF921F93CF93DF93EC018EEAA7
:1051E000E82E86E0F82E10E08C8197014091C906E8
:1051F0006091C806810F0E94282D115E83E0E80EA1
:10520000F11C183F89F70E94C8269A818C8190FF73
:1052100002C08F5F01C081508C83DF91CF911F91BD
:10522000FF90EF90089521E030E0A90102C0440F03
:10523000551F8A95E2F7CA012091AA06662311F04C
:10524000822B02C0809582238093AA068091A906B2
:10525000811106C08091C60660E086950E94C82C28
:1052600008959091C60690FF0CC0EEEAF6E08183A7
:1052700060834283339696E0E63CF907C1F70E94CB
:10528000C8260895A3E0B0E0E8E4F9E20C94E52E26
:105290008C018091AD0681110AC09E012F5F3F4FA6
:1052A0004FEF6FEF0E94282D8A818093AD06F801A1
:1052B0008481813051F028F0823061F44091AD0654
:1052C0000AC08091AD0640E007C06091AD0640E0A5
:1052D00080E003C040E080E060E00E943129F801F6
:1052E000848190E0019663E070E00E946B2F8483DC
:1052F0002396E4E00C94012FA3E0B0E0E2E8F9E2A9
:105300000C94DC2EF82EB62EE42EA22E9091C6061A
:1053100090FF67C0E92FE695AE2FB0E0A457BE4FCF
:105320008C918093A8069E7F923061F49E012F5F3E
:105330003F4F8F2D0E94282D4B8169818A810E94C9
:1053400031293DC0823019F4E090C90638C086305A
:1053500019F4F090C70633C08930D9F3893179F553
:10536000E9512E2F2170722EE695F0E0E356F14FB1
:10537000E4910E2F10E03EEAC32E36E0D32E812CAE
:10538000912CC40123E0969587952A95E1F7711039
:1053900002C08F0D03C02F2D281B822F96014E2D8A
:1053A0006B2D0E94282D800E911E83E0C80ED11C0B
:1053B00026ECC21626E0D20621F70E94C826F092FB
:1053C000C706B092C806E092C906AA2051F06091C3
:1053D000C6067091C7068091C8069091C9060E94C2
:1053E000912C2396EDE00C94F82E6091C6066695FC
:1053F00070E04BE050E084E191E00E94DF2F892BC8
:1054000019F481E08093A9060E946F209093A3066F
:105410008093A206089580E090E00E94E12080E061
:1054200090E00E94CB2010925D020E94FE19089528
:10543000A0E0B0E0EEE1FAE20C94E02E7C010091F5
:105440009302109194028091600290916102082B66
:10545000192BCFE0D0E0CC24C394D12CC6010C2E64
:1054600002C0880F991F0A94E2F780239123892BA9
:1054700021F4219798F7B12C09C0BC2EB7018C2FCD
:105480000E9407220E94DE17019799F38B2DCDB75A
:10549000DEB7E9E00C94FC2E963078F5843068F5A0
:1054A000E82FF0E084E0989FE00DF11D11249E2F7D
:1054B000977083E0F695E7958A95E1F7EE0FFF1F69
:1054C000EE0FFF1FE553F94F40E050E080E02191DF
:1054D00030E0092E02C0369527950A94E2F7217034
:1054E0003327042E01C0220F0A94EAF7822B4F5F64
:1054F0005F4F4430510559F7089580E00895963084
:1055000088F5843078F5E82FF0E084E0989FE00D8E
:10551000F11D11248E2F877051E001C0550F8A951F
:10552000EAF783E0F695E7958A95E1F7EE0FFF1F1E
:10553000EE0FFF1FE553F94F20E030E070E04081AF
:10554000CB01022E02C0969587950A94E2F78170EE
:10555000819584278523842781932F5F3F4F2430B3
:10556000310569F708950E94631790939402809320
:1055700093020E940B2A089521E030E002C0220F1E
:10558000331F8A95E2F72095309580919302909190
:105590009402822393230E94B32A089521E030E0ED
:1055A00002C0220F331F8A95E2F7809193029091F7
:1055B0009402822B932B0E94B32A08959093610248
:1055C000809360020E940B2A0895FC0180819181E2
:1055D0000E94E61A92959F70963079F010F49250DE
:1055E00001C09A50923068F4803F69F018F4883E08
:1055F00040F409C0843F29F406C0883E20F0813F72
:1056000011F080E0089581E0089510925E0286E036
:10561000E6E1F2E0DF011D928A95E9F70E940B2A8C
:105620000895882321F00E94F7190E94FE19089519
:10563000882339F090915E02892B80935E020E944C
:10564000FE190895882309F455C0682F823869F43B
:105650000E94F72081FF4EC069E384E192E00E943E
:10566000B1200E94FE1969E30EC0833899F40E94AC
:10567000F72080FF3FC063E584E192E00E94B12003
:105680000E94FE1963E584E192E00E94A4200E943A
:10569000FE190895843869F40E94F72082FF2AC019
:1056A00067E484E192E00E94B1200E94FE1967E461
:1056B000EACF8CEF860F813A30F380E2860F883094
:1056C00048F4677081E001C0880F6A95EAF70E948C
:1056D000F719DDCF8BE5860F833028F480E090E06A
:1056E0000E94E1200895685A673120F480E090E03C
:1056F0000E94CB200895CF93882309F496C0C82F29
:105700008238B1F40E94F72081FD8FC069E384E103
:1057100092E00E94B1200E94FE192FEF81EE94E0EA
:10572000215080409040E1F700C0000069E317C0BD
:105730008338E1F40E94F72080FD77C063E584E1BF
:1057400092E00E94B1200E94FE192FEF81EE94E0BA
:10575000215080409040E1F700C0000063E584E103
:1057600092E00E94A4200E94FE195FC08438B1F428
:105770000E94F72082FD59C067E484E192E00E9414
:10578000B1200E94FE192FEF81EE94E0215080405D
:105790009040E1F700C0000067E4E1CF8CEF8C0F90
:1057A000813A80F4E6E1F2E08CE192E02191C217C7
:1057B000A1F18E179F07D1F76C2F84E192E00E9430
:1057C000B120D1CF80E28C0F883068F4C77081E0BF
:1057D00090E001C0880FCA95EAF790915E02892B8C
:1057E00080935E02C0CFEBE5EC0FE33040F4F0E0D5
:1057F000E45BFE4F808190E00E94E12016C0C85A11
:10580000C73198F4EC2FF0E0EE0FFF1FE15BFE4F85
:10581000808191810E94CB2008C06C2F84E192E0AE
:105820000E94A4200E94FE19C7CFCF9108951F9314
:10583000CF93DF93182F893319F0C0E0D0E002C076
:10584000C0E5D0E0812F0E947B2B209741F08FE9AB
:105850009FE00197F1F700C000002197F6CF812F5C
:105860000E94222BDF91CF911F910895E6ECF6E084
:10587000438128E0421B08F440E021E062818181FD
:105880000E947C290895E6ECF6E0438128E0420F6F
:1058900008F44FEF21E0628181810E947C29089504
:1058A000E6ECF6E0628128E0621B08F460E021E0AB
:1058B000438181810E947C290895E6ECF6E06281B3
:1058C00028E0620F08F46FEF21E0438181810E949C
:1058D0007C290895E6ECF6E0818121E04381628134
:1058E00088500E947C290895E6ECF6E0818121E051
:1058F00043816281885F0E947C2908958091C60659
:10590000282F269530E02115310519F48170826029
:1059100005C02532310524F0817088648093C60665
:105920000895CF92DF92EF92FF926B017C010E946B
:105930007E2CB701A60188E090E00E943D2FFF90E9
:10594000EF90DF90CF9008958091CA06882319F0D8
:1059500081508093CA066091C6067091C7068091F7
:10596000C8069091C9060E94912C08958091CA069C
:10597000833018F48F5F8093CA066091C6067091D9
:10598000C7068091C8069091C9060E94912C08957F
:105990009091C60690FF36C09170811102C092604E
:1059A00006C0853210F0986402C0880F982B90933F
:1059B000C606662351F06091C6067091C7068091B5
:1059C000C8069091C9060E94912C6091C606669502
:1059D00070E04BE050E084E191E00E94DF2F892BE2
:1059E00019F01092A90602C00E94F52981E0809367
:1059F000A50620E04091C9066091C8068091C706BF
:105A00000E947C2908958091C6068695815009F4EC
:105A100084E261E00E94C82C08958091C6068695B4
:105A20008F5F853208F081E061E00E94C82C089504
:105A3000E6ECF6E083E0808311828FEF828383833C
:105A4000148260817181828193810E94912C0895DA
:105A5000A0E0B0E0EEE2FDE20C94DF2EE82EF62EA0
:105A6000E901E42FF0E0611106C0E655F04FE49142
:105A70004E2F2E2F71C0062F10E0E655F04F4491A7
:105A8000F42FC42ED12C26E0829FC00111242FEFC9
:105A900030E0B9010E94C32E5BEA5603C001579F54
:105AA000900D11248E0D911D8E0D911D582F550FA7
:105AB000580FD901A01BB10BAC9DC001AD9D900D3D
:105AC000BC9D900D1124E92FF59ED0011124AB2F20
:105AD000BB277901EA1AFB0AEC9CD001ED9CB00DC2
