:100000000C9455080C9472080C9472080C947208A5
:100010000C9472080C9472080C9472080C94720878
:100020000C9472080C9472080C948A1E0C94451D52
:100030000C943E200C9472080C9472080C94720874
:100040000C9472080C9472080C9472080C94720848
:100050000C9472080C94F11F0C9472080C947208A2
:100060000C9472080C9472080C9472080C94720828
:100070000C9472080C9472080C9472080C94720818
:100080000C9472080C9472080C9472080C94720808
:100090000C9472080C9472080C9472080C947208F8
:1000A0000C9472080C9472080C947208340C370C7F
:1000B0005A0C670C6E0C790C7C0CBE0CE00C780DA5
:1000C000780D340DEB0CEE0C110D310D340D370D98
:1000D000590DB90BC90EE40EFF0E1A0F350F500F54
:1000E0006B0F860FA10FBC0F531453148514851486
:1000F000F7143716371637161315A115B215B215A2
:100100001B244224EB254224EB258E24B124EB252D
:10011000A625B6250601BFFFFFFF00000000000571
:1001200080FFFFFF00000000040400FFFFFF00004D
:10013000000000DA1281FFD9F1DB20A4A62EAF0067
:10014000A0C000A1C800AED580A83FD300408D1448
:10015000200028011E011401000000047F3F1F64DD
:100160003214643214783C1E1E140A050A000A0078
:10017000524553540A004272692B204272692D2065
:100180004546582B204546582D0A004875652B20BA
:100190004875652D205361742B205361742D0A001E
:1001A0004C79722D20204C79722B0A003D3D3D3D4B
:1001B0003D3D3D3D3D3D3D3D3D3D3D3D3D3D3D3D6F
:1001C0000A004C617965723A4B65795F53657474C6
:1001D000696E677331300A000A000A000A000A00DB
:1001E0004C79722D20204C79722B0A003D3D3D3D0B
:1001F0003D3D3D3D3D3D3D3D3D3D3D3D3D3D3D3D2F
:100200000A004C617965723A2056696D20390A00FE
:100210000A000A000A000A004C79722D20204C794D
:10022000722B0A003D3D3D3D3D3D3D3D3D3D3D3D4B
:100230003D3D3D3D3D3D3D3D0A004C617965723A95
:1002400020457863656C20380A000A000A000A001D
:100250000A004C79722D20204C79722B0A003D3D0A
:100260003D3D3D3D3D3D3D3D3D3D3D3D3D3D3D3DBE
:100270003D3D0A004C617965723A2044615F5669E0
:100280006E636920370A000A000A000A000A004C5F
:1002900079722D20204C79722B0A003D3D3D3D3D69
:1002A0003D3D3D3D3D3D3D3D3D3D3D3D3D3D3D0AB1
:1002B000004C617965723A2050686F746F73686F93
:1002C0007020360A000A000A000A000A004C7972FF
:1002D0002D20204C79722B0A003D3D3D3D3D3D3D9A
:1002E0003D3D3D3D3D3D3D3D3D3D3D3D3D0A004C9F
:1002F000617965723A2053616920350A000A000A63
:10030000000A000A004C79722D20204C79722B0AC9
:10031000003D3D3D3D3D3D3D3D3D3D3D3D3D3D3D4A
:100320003D3D3D3D3D0A004C617965723A204944AE
:10033000454120340A004869644E20456E642020FF
:100340005365746E20536176650A00436F6D6420B7
:10035000486F6D652043702B202043702D200A00CC
:100360005265706C2046696E64204D6F762B204D6F
:100370006F762D0A00436F6D7420537263682046B8
:100380006D617420556E646F0A004C79722D2020C7
:100390004C79722B0A003D3D3D3D3D3D3D3D3D3D8F
:1003A0003D3D3D3D3D3D3D3D3D3D0A004C61796556
:1003B000723A2056535F436F646520330A00456EDE
:1003C00074722030202020202E202020202B20205E
:1003D000200A00312020202032202020203320201D
:1003E00020202D2020200A0034202020203520200D
:1003F000202036202020202A2020200A00372020FC
:100400002020382020202039202020202F202020AC
:100410000A004C79722D20204C79722B0A003D3D48
:100420003D3D3D3D3D3D3D3D3D3D3D3D3D3D3D3DFC
:100430003D3D0A004C617965723A204E756D6265EA
:100440007250616420320A002A2A2A2A202A2A2A83
:100450002A205A6F6D30205A6F6D2B0A0043722B81
:1004600046204D696E202043616C20205A6F6D2D0F
:100470000A004C6F636B204D61782020505570202E
:100480002050446F770A0057696E582057546162B4
:1004900020566B657920486964650A004E2F41201B
:1004A000204C4544200A003D3D3D3D3D3D3D3D3D08
:1004B0003D3D3D3D3D3D3D3D3D3D3D0A004C61796D
:1004C00065723A205379735F3220310A00456E74A9
:1004D0007220506173742020436F707920437574CB
:1004E000200A00416C6C20204C73745067204C61D2
:1004F0006E6720536176650A00486F6D6520456E12
:10050000642020205363726E20556E646F0A004D84
:1005100079437020416C2B54202057696E44204D44
:100520007574650A00546F5F31204C79722B0A0094
:100530003D3D3D3D3D3D3D3D3D3D3D3D3D3D3D3DEB
:100540003D3D3D3D0A004C617965723A53797374C3
:10055000656D20300A00000000000000000000006F
:10056000000000000000000000000000000000008B
:10057000000000000000000000007E0F00D4FFFF1C
:10058000FFC70000007800000000000000002A2BD8
:100590002800000000000000000000000000000033
:1005A0000029000000002C1E34202122243426279C
:1005B000252E362D3738271E1F20212223242526BD
:1005C0003333362E37381F0405060708090A0B0C8B
:1005D0000D0E0F101112131415161718191A1B1CD3
:1005E0001D2F3130232D350405060708090A0B0C91
:1005F0000D0E0F101112131415161718191A1B1CB3
:100600001D2F3130354C00AF00AEAE001150000050
:10061000000053002A00000000005F00600061003D
:1006200054005C005D005E00550059005A005B00FC
:1006300056005800620063005700000000000000F0
:1006400000000000000000000000000000000000AA
:10065000000000000000000000000000000000009A
:10066000000000000000000000000000000000008A
:10067000000000000000000000000000000000007A
:10068000000000000000000000000000000000006A
:10069000000000000000000000000000000000005A
:1006A000000000000000000000000000000000004A
:1006B000000000000000000000000000000000003A
:1006C000000000000000000000000000000000002A
:1006D000000000000000000000000000000000001A
:1006E000000000000000000000000000000000000A
:1006F00000000000000000000000000000000000FA
:1007000000000000000000000000000000000000E9
:1007100000000000000000000000000000000000D9
:1007200000000000000000000000000000000000C9
:1007300000000000000000000000000000000000B9
:1007400000000000000000000000000000000000A9
:100750000000000000000000000000000000000099
:100760000000000000000000000000000000000089
:100770000000000000000000000000000000000079
:100780000000000000000000000000000000000069
:100790000000000000000000000000000000000059
:1007A0000000000000000000000000000000000049
:1007B0000000000000000000000000000000000039
:1007C0000000000000000000000000000000000029
:1007D0000000000000000000000000000000000019
:1007E00000000000000000000000C25C105000008B
:1007F0000000C55CC65C00000000C75CC85C00006F
:100800000000C95CCA5C00000000C35CC45C00005E
:100810000000000000000000005C05010980A1014B
:10082000850319012AB700150126B7009501751037
:100830008100C0050C0901A101850419012AA0024B
:10084000150126A002950175108100C00660FF0900
:1008500061A1010962150026FF009520750881023B
:100860000963150026FF00952075089102C0050157
:100870000906A101050719E029E7150025019508DA
:10088000750181029501750881010507190029FF8D
:10089000150026FF00950675088100050819012935
:1008A00005950575019102950175039101C0090235
:1008B0005B00030100A0FA0904000001030101002C
:1008C00009211101000122400007058103080001F0
:1008D00009040100020300000009211101000122A6
:1008E0002200070582032000010705030320000101
:1008F0000904020001030000000921110100012286
:1009000032000705840320000112010002000000EC
:100910000846434A580300010200011A03530043EA
:100920000046002D004E0055004D0050004100448F
:10093000002D0031000000200344006500730069B1
:100940000067006E006500640020006200790020EE
:100950000053004300460000000403090407087F19
:100960000807003E5B4F5B3E003E6B4F6B3E001C3A
:100970003E7C3E1C00183C7E3C18001C577D571CDA
:10098000001C5E7F5E1C0000183C180000FFE7C3DF
:10099000E7FF00001824180000FFE7DBE7FF003046
:1009A000483A060E00262979292600407F050507CA
:1009B00000407F05253F005A3CE73C5A007F3E1C23
:1009C0001C0800081C1C3E7F0014227F2214005FBC
:1009D0005F005F5F0006097F017F00006689956AFE
:1009E0000060606060600094A2FFA2940008047E32
:1009F00004080010207E20100008082A1C080008A7
:100A00001C2A0808001E10101010000C1E0C1E0CD2
:100A10000030383E383000060E3E0E060000000062
:100A200000000000005F0000000007000700001445
:100A30007F147F1400242A7F2A1200231308646283
:100A400000364956205000000807030000001C2211
:100A50004100000041221C00002A1C7F1C2A0008C3
:100A6000083E0808000080703000000808080808E8
:100A7000000000606000002010080402003E5149A0
:100A8000453E0000427F400000724949494600212E
:100A900041494D33001814127F1000274545453950
:100AA000003C4A49493100412111090700364949B2
:100AB000493600464949291E000000140000000084
:100AC00040340000000008142241001414141414CF
:100AD000000041221408000201590906003E415D50
:100AE000594E007C1211127C007F49494936003E64
:100AF00041414122007F4141413E007F49494941F6
:100B0000007F09090901003E41415173007F080837
:100B1000087F0000417F4100002040413F01007FED
:100B200008142241007F40404040007F021C027FA9
:100B3000007F0408107F003E4141413E007F0909CB
:100B40000906003E4151215E007F09192946002611
:100B5000494949320003017F0103003F4040403FC3
:100B6000001F2040201F003F4038403F0063140812
:100B70001463000304780403006159494D430000E5
:100B80007F41414100020408102000004141417FA3
:100B900000040201020400404040404000000307FE
:100BA0000800002054547840007F2844443800381E
:100BB0004444442800384444287F0038545454188E
:100BC0000000087E09020018A4A49C78007F080495
:100BD00004780000447D4000002040403D00007F3C
:100BE000102844000000417F4000007C0478047815
:100BF000007C0804047800384444443800FC18247D
:100C000024180018242418FC007C08040408004858
:100C1000545454240004043F4424003C4040207CAD
:100C2000001C2040201C003C4030403C0044281068
:100C30002844004C9090907C004464544C44000044
:100C4000083641000000007700000000413608002F
:100C5000000201020402003C2623263C00000000A2
:100C6000000000404040F0F8F8FF38FFF8F83FF887
:100C7000F8FF38FFF8F8F0404040000000000000A6
:100C800080C0C0C0800000C0C08000000080C0C024
:100C900000C0C0000080C0C00000000000C0C0C094
:100CA000C0C000C0C0000000000000000000000044
:100CB0000000000000000000000000000000000034
:100CC0000000000000000000000000000000000024
:100CD000000000000000000000000000C0F0F8FC70
:100CE0003E1E06010000007F4141417F007F4141DF
:100CF000417F000080C0E07E5B4F5BFEC00000C013
:100D000000DCD7DEDEDED7DC00C000000000000023
:100D100000000000000000000000000000000000D3
:100D2000000000494949FFFFFFFFE0DFBFBF00BFF0
:100D3000BFDFE0FFFFFFFF49494900000000001F3F
:100D40003F6060E0BF1F007F7F071E381E077F7F68
:100D5000007F7F0E1F3B716000000000007F7F0C52
:100D60000C0C007E7E007F7E0303007F7E03037EEB
:100D70007E03037F7E000F3E703C063C703E0F00FA
:100D8000327B49493F7E007F7E0303001E3F696935
:100D90006F2600000000000000000000030F1F3F4E
:100DA0003C7870600000007F4141417F007F4141FD
:100DB000417F00307B7F7830202030787F3B0003FC
:100DC000000F7F0F0F0F7F0F0003000000000000D7
:100DD0000000000000000000000000000000000013
:100DE000000000010101070F0F7F0F7F0F0F7E0F23
:100DF0000F7F0F7F0F0F07010101000000000000AF
:100E000000000000010100000000000000000000E0
:100E100000000000000000000000000000000000D2
:100E200000000000000000000000000000000000C2
:100E300000000000000000000000000000000000B2
:100E400000000000000000000000000000000000A2
:100E50000000000000000000000000000000000092
:100E60000000000000000000000000000000000082
:100E70000000000000000000000000000000000072
:100E80000000000000000000000000000000000062
:100E900000000000000000000000000000FFAA7F2A
:100EA00055400001020304050607222325262829B0
:100EB0002A2C2D2F3032333536383A3B3D3E4042D6
:100EC000434547494A4C4E5051535557595A5C5E19
:100ED0006062646668696B6D6F71737577797B7D2D
:100EE0007F81838587898A8C8E90929496989A9C2C
:100EF0009E9FA1A3A5A7A8AAACAEAFB1B3B4B6B844
:100F0000B9BBBCBEBFC1C2C3C5C6C7C9CACBCCCDA5
:100F1000CED0D1D2D2D3D4D5D6D7D7D8D9D9DADA80
:100F2000DBDBDBDCDCDCDCDCDDDDDDDDDCDCDCDC00
:100F3000DCDBDBDBDADAD9D9D8D7D7D6D5D4D3D234
:100F4000D2D1D0CECDCCCBCAC9C7C6C5C3C2C1BF12
:100F5000BEBCBBB9B8B6B4B3B1AFAEACAAA8A7A576
:100F6000A3A19F9E9C9A98969492908E8C8A898732
:100F70008583817F7D7B79777573716F6D6B696810
:100F8000666462605E5C5A5957555351504E4C4AE4
:100F90004947454342403E3D3B3A3836353332308F
:100FA0002F2D2C2A292826252322000101010101A9
:100FB0000101010102020202020202020203030312
:100FC00003030303030404040404040405050505E2
:100FD00005060606060607070707070808080809A2
:100FE0000909090A0A0A0B0B0B0C0C0C0D0D0D0E4E
:100FF0000E0E0F0F0F1010111111121213131414E3
:10100000151516161717181819191A1A1B1B1C1D57
:101010001D1E1E1F202021222223242425262627B0
:101020002829292A2B2C2D2D2E2F303132323334E2
:1010300035363738393A3B3C3D3E3F4041424344E8
:1010400045464748494A4C4D4E4F505153545556CA
:1010500058595A5B5D5E5F616264656668696B6C76
:101060006D6F7072737577787A7B7D7E80828385F1
:1010700087888A8C8E8F91939596989A9C9EA0A231
:10108000A3A5A7A9ABADAFB1B3B5B7BABCBEC0C23B
:10109000C4C6C9CBCDCFD1D4D6D8DBDDDFE2E4E7FF
:1010A000E9EBEEF0F3F5F8FAFDFF11241FBECFEFE8
:1010B000DAE0DEBFCDBF11E0A0E0B1E0E8E7FFE598
:1010C00002C005900D92A23BB107D9F726E0A2EB32
:1010D000B1E001C01D92A53DB207E1F70E9474087E
:1010E0000C94BA2F0C940000CF93DF93CDB7DEB7EA
:1010F000E0970FB6F894DEBF0FBECDBF85B780680E
:1011000085BF85B7806885BF84B7877F84BF0FB6EA
:10111000F894A89580916000886180936000109297
:1011200060000FBE90E080E80FB6F89480936100F5
:10113000909361000FBE82E597E19093B301809395
:10114000B2010E94891D0E942F1E8091E2008460DE
:101150008093E2007894809187028823A1F0109117
:10116000E9001F709091EC00892F817090FD80E85C
:10117000182B1092E9008091E80083FD0E9438232B
:101180001F701093E90082E084BD93E095BD9AEF53
:1011900097BD80936E000E945726811102C00E9465
:1011A000472602E211E0A8E2CA2EA1E0DA2ED80119
:1011B0008D918D018F3F11F00E949717C016D106B7
:1011C000B1F708E211E0F80181918F018F3F11F032
:1011D0000E949717F1E00C321F07A9F786E0EBE0B9
:1011E000F2E0DF01282F1D922A95E9F7E4EBF1E008
:1011F000DF011D928A95E9F70E944819811102C00A
:101200000E94541982E090E00E94D82E8093BD0184
:101210000E9437199093BB018093BA010E943D1C34
:10122000EFE3FCE93197F1F700C000000E943D1C9C
:1012300080910B0280FF08C06FEF7FEF80E090E0AD
:101240000E940A2F0E94BF1F83E090E00E94D82EC8
:1012500090E00E94982A80919102909192020E94BF
:1012600033171092080280E8809393020E948D2D1C
:101270006DE070E085E491E00E94E722892B09F09F
:1012800043C08091080263E070E081FD3AC082E4CF
:1012900091E00E94E722892BB9F56DE070E082E3CE
:1012A00091E00E94E722892B79F50E942620DC013B
:1012B000CB01805A9541AF4FBF4F8093630290930B
:1012C0006402A0936502B0936602E6E9F2E080E072
:1012D00094E0DF019C011D9221503040E1F7F09332
:1012E0009D06E0939C068FEF9FEF9093950280936D
:1012F000940281E080936802809367021092090251
:1013000003C08FE391E0C5CF8091BC01811133C050
:101310000E944819811104C00E9454190E94822C15
:1013200088E090E00E94E02E6093BE067093BF06B6
:101330008093C0069093C1066E7F71F40E94822C48
:1013400088E090E00E94E02E6093BE067093BF0696
:101350008093C0069093C1060E94382C10929F067D
:101360008091BE0680FF04C060E086950E94362D05
:1013700081E08093BC0181E08093C60154985C9A1F
:1013800056985E9A8FE891E00197F1F700C000004F
:101390003091C601E7ECF1E020E0231761F089B15C
:1013A000829581704E9B02C092E001C090E0892B33
:1013B00081932F5FF2CF82E591E09093A206809314
:1013C000A10680E091E090936F0280936E02442426
:1013D0004394512CDE0111966D0180918702853076
:1013E00009F04DC0E0E4BE2E00E112E180918702D9
:1013F000853009F03EC080918702843041F180E061
:101400000E948E100E94D82110927202E8E1F0E052
:101410000FB6F894A895E09360000FBEB0926000FC
:1014200083B7817F846083BF83B7816083BF7894F3
:10143000889583B78E7F83BF0FB6F894A895809167
:101440006000886180936000109260000FBE809100
:101450008602882309F4CACF0E943D1CEBE0F2E02B
:10146000819181116DC321E132E02E173F07C1F751
:10147000BDCF0E94BF2A0E94BA200E948E100E94F7
:101480003D1C882E81110E942620ABE0B2E0EEEBDD
:10149000F1E000E010E0302F2D919191922721F1A1
:1014A00080E0BB24B394492F4B21D1F089A33AA308
:1014B0002B2181E009F480E08BA30E94322081601F
:1014C000782F9DA38CA349A15AA16BA18DA10E9445
:1014D000F10FF801E254FE4F8081B826B08219C0A6
:1014E0008F5FBB0C8430F9F60F5F1F4F063011057C
:1014F00091F68FEF8EA38FA318A60E9432208160F1
:10150000782F9AA789A74EA15FA168A58AA50E94F6
:10151000F10F80919F06882309F493C080919E0665
:10152000E091BE06E695E81BE093D106823059F4BF
:10153000F0E0E859FE4FE4910E2F10E074E1A72E81
:1015400076E2B72E59C0863059F4F0E0EB59FE4FE1
:10155000E4910E2F10E064E0A62E66E2B62E4CC099
:10156000893061F4E695F0E0EE59FE4FE4910E2FDC
:1015700010E05CEAA52E58E2B52E3EC08F3061F433
:10158000E695F0E0E15AFE4FE4910E2F10E04EE4B4
:10159000A42E48E2B42E30C0853159F4F0E0E45A6C
:1015A000FE4FE4910E2F10E030E0A32E38E2B32E70
:1015B00023C08831A1F0833249F4EAE5F1E00591D6
:1015C000149125E0A22E29E2B22E16C0843271F0C9
:1015D00000ED17E093E0A92E96E2B92E0DC008E2C7
:1015E00010E085E8A82E87E2B82E06C004EF11E0CF
:1015F000BDE4AB2EB7E2BB2E8091D206882361F00A
:101600001092D2060E9432209093D0068093CF068B
:101610001092D4061092D3060E943220E091CF0699
:10162000F091D0068E1B9F0B8F3F9F4750F40E0FFB
:101630001F1F1093D0060093CF068FEC96E0F501A4
:101640000995712C912C8091C601781608F05AC02A
:10165000072D10E0E9B1E295E1704E9B02C092E0E7
:1016600001C090E08E2F892BD801A953BE4FEC9179
:101670002E2F237030E0482F082E000C550B241716
:101680003507F1F1EE0FEE0FE82BEC93EF70F0E081
:10169000E45DFE4F98012B533E4F59019081D901D3
:1016A0008C91890F8C93843064F0F801EC53FE4FD9
:1016B00080818F5F8083711006C08AEA0E94D12BDF
:1016C00002C020E001C021E0F50180818D3F64F47B
:1016D000F801EC53FE4F808181508083711003C06C
:1016E00089EA0E94D12B21E0D5018C91082E000CB3
:1016F000990B64E070E00E942C2FF5018083922A00
:101700007394A1CF91100E942620809168028823B3
:1017100009F453C086E992E090939D0680939C065D
:101720009091910280919202E82EF12CE114F10443
:1017300021F4E92EF82EE0E001C0E8E0C701A4E0C2
:1017400096958795AA95E1F7009711F0EC5F7C01DB
:10175000C7019695879596958795009711F0EE5F4E
:101760007C01C70196958795892B09F408C2EF5F24
:1017700006C286E495E00E94C92280E395E00E94BB
:10178000C92285E295E00E94C9228FE095E00E947F
:10179000C92289EF94E00E94C92283EE94E00E945E
:1017A000C9228DEC94E00E94C922809168028111C7
:1017B000ECC1809167028111CEC2811001C09110ED
:1017C0000E94F2210E94BA2090910A02891721F00A
:1017D00080930A020E948E1080918702843009F063
:1017E000FCCD83E08093E9008091E80082FFF5CD95
:1017F0008091E80085FF22C00E94A81D81111CC0B5
:1018000000E210E0BE016F5F7F4F5B0108C0809176
:10181000F100D5018D935D010150110969F08091AE
:10182000E80085FDF4CF8091E8008B778093E80095
:101830000E94A81D882399F391E001C090E0809157
:10184000E8008B778093E800992309F4C6CDE981FD
:101850008E2F90E0FC013197E331F10508F048C18B
:10186000EA5AFF4F0C94622F1A8289E0A7C08A813E
:10187000823009F47BC1833051F0813009F038C1E6
:101880000E9426209B838C837D836E8333C180914D
:101890000B028B8380910C028C8380910D028D83CF
:1018A00080910E028E8380910F028F8380911002AF
:1018B000888720C18A81823009F01AC16B817C81BE
:1018C0008D819E810E94682F0E94182213C14C8135
:1018D0006B818A810E949C219D834FC12D813E8115
:1018E0003227232732274C816B818A810E94402135
:1018F00001C10E946721FEC08A818138B1F050F495
:10190000803809F0F7C020E04B816091C0068091DB
:10191000BF0631C0823859F1833809F0EBC020E0AE
:101920004091C1066C818B8126C060E08B810E9452
:10193000362D9B818091BE06911111C08E7F8093C0
:10194000BE0610929F06BFEFE0E7F2E0B150E04024
:10195000F040E1F700C000000E948B26CBC0816000
:101960008093BE0660E086950E94362DC3C08B81B1
:101970008093C206BFC00E943F29BCC08A818138C3
:1019800099F030F4803809F0B5C08091C10616C0D6
:10199000823891F0833809F0ADC08091BF068B8307
:1019A0008091C0068C83A6C08091BE0680FF02C0D5
:1019B000869504C080E002C08091C2068B839AC0E5
:1019C0006091BE067091BF068091C0069091C106DD
:1019D0000E944B2C8FC01A8289EDF0CF0A811B81A7
:1019E0001027012710278C80912C5601C801895D92
:1019F0009C4F95012C193D092815390508F07AC02E
:101A0000093D110530F40E94D82ED50114968C930F
:101A100002C0F50114820F5F1F4FFFEFAF1ABF0A1C
:101A2000E5CF0A811B811027012710278C80912C7C
:101A30005601C801895D9C4F95012C193D09281557
:101A4000390508F057C0093D110528F4D501149651
:101A50006C910E94EC2E0F5F1F4FBFEFAB1ABB0AB9
:101A6000E8CF0E94302146C080E18A8343C00A81CA
:101A70001B811027012710278C80912C5601C8014B
:101A8000879695012C193D092815390598F50115FA
:101A9000E3E01E0730F40E94D82ED50114968C93F3
:101AA00002C0F50114820F5F1F4FFFEFAF1ABF0A8C
:101AB000E6CF0A811B811027012710278C80912CEB
:101AC0005601C801879695012C193D09281539053D
:101AD00088F4011523E0120728F4D50114966C91BF
:101AE0000E94EC2E0F5F1F4FBFEFAB1ABB0AE9CF6E
:101AF0008FEF898380918702843009F06ECC10913A
:101B0000E9001F709091EC00892F817090FD80E8B2
:101B1000182B82E08093E9008091E80080FF0CC0E0
:101B200040E050E060E270E0C6010E940E23809128
:101B3000E8008E778093E8001F701093E9004DCC89
:101B400009BD19BD09B400FEFDCF8091D8008F7D7D
:101B50008093D8008091E00082608093E0008091C3
:101B6000E00081FDFCCF0E94BF2A40CC86E290E0DD
:101B70000E94D82E1B821C821D828E83BBCF8E2F8B
:101B800090E08B30910508F4FFC0209194023091D1
:101B900095022115310509F40CCE809109028111BD
:101BA00008CE282E312C5201082E02C0AA0CBB1CD4
:101BB0000A94E2F7A9014A215B21452B11F48F5FBA
:101BC000F0CF90910802910166E0220F331F6A95D1
:101BD000E1F790FD13C08295880F880F8074809381
:101BE0000E01220F232F221F330B31952093110159
:101BF000815C80930F011092120112C046E036956D
:101C000027954A95E1F7220F220F220F20930E010C
:101C100010921101295F20930F0187E08093120138
:101C200024E630E047E050E06CE071E088E70E9495
:101C3000382E892B09F0BDCD8091080280FD23C08C
:101C4000C10126E0880F991F2A95E1F7AC014A5699
:101C50005D4F04E610E020E430E060E488E70E9495
:101C6000592E892B09F0A5CD0E94F221A094B094A1
:101C70008091940290919502A822B922B092950287
:101C8000A092940296CD80E4E8ECF1E0DF011D9291
:101C90008A95E9F786E0220C331C8A95E1F7E4E4A3
:101CA000F1E0F8ABEFA74CE351E0AFA5B8A98D91F7
:101CB000B8ABAFA7FA019191AF019101290F311D86
:101CC000B9016A567D4F7EA76DA790E088539E4F5D
:101CD000FC0177E09F01281B390B042D01C0000F88
:101CE0002A95EAF7ADA5BEA5BCA7ABA710E0ABA5AA
:101CF000BCA56D91BCA7ABA76023272F211B277024
:101D0000722E022E000C330BB62F01C0BB0F7A943B
:101D1000EAF77B2E3195219531092770332701C0D1
:101D200066952A95EAF7762A6081762A70821F5F87
:101D30001830E9F6715031967F3F61F6EFA5F8A9AA
:101D4000EC54F14009F0B1CF04E610E020E430E0BB
:101D500048EC51E082CF0E9426200091630210914E
:101D600064022091650230916602DC01CB01801B88
:101D7000910BA20BB30B8F3F9F4FAF4FBF4708F0A4
:101D80001CCD0E94D82119CDFC01E759FF4F0C94BE
:101D9000622F8DEB94E00E94C92287EA94E00E94B2
:101DA000C9228CE994E00E94C92287E894E00E944D
:101DB000C92282E794E00E94C9228DE594E00E9446
:101DC000C92288E494E0EFCC84E394E00E94C92225
:101DD0008EE194E00E94C92282E194E00E94C9222F
:101DE0008DEF93E00E94C92288EE93E00E94C92201
:101DF00083ED93E00E94C9228EEB93E0D4CC8CEA71
:101E000093E00E94C92286E993E00E94C9228AE8F1
:101E100093E00E94C92285E793E00E94C92280E6F0
:101E200093E00E94C9228BE493E00E94C92286E3DA
:101E300093E0B9CC87E293E00E94C92281E193E06C
:101E40000E94C92285E093E00E94C92283E093E0CA
:101E50000E94C92281E093E00E94C9228FEF92E0A4
:101E60000E94C9228DEF92E09ECC8FEE92E00E94FC
:101E7000C92289ED92E00E94C9228DEC92E00E9475
:101E8000C9228BEC92E00E94C92289EC92E00E9468
:101E9000C92287EC92E00E94C92285EC92E083CCB3
:101EA00081EB92E00E94C9228BE992E00E94C92254
:101EB0008FE892E00E94C9228DE892E00E94C92238
:101EC0008BE892E00E94C92289E892E00E94C92230
:101ED00087E892E068CC84E792E00E94C9228EE510
:101EE00092E00E94C92282E592E00E94C92280E528
:101EF00092E00E94C9228EE492E00E94C9228CE402
:101F000092E00E94C9228AE492E04DCC8AE392E0FA
:101F10000E94C92284E292E00E94C92288E192E0F4
:101F20000E94C92286E192E00E94C92284E192E0E7
:101F30000E94C92282E192E00E94C92280E192E0DF
:101F400032CC82E092E00E94C9228CEE91E00E94A5
:101F5000C92280EE91E00E94C9228EED91E00E949C
:101F6000C9228CED91E00E94C9228AED91E00E9485
:101F7000C92288ED91E017CC82EC91E00E94C92241
:101F80008CEA91E00E94C92280EA91E00E94C92275
:101F90008BE891E00E94C92286E791E00E94C92265
:101FA00080E791E00E94C9228EE691E00E94C9225A
:101FB0008CE691E0F8CB0E94BF2A2FEF84E39CE0EF
:101FC000215080409040E1F700C000009AE088E195
:101FD0000FB6F894A895809360000FBE90936000B0
:101FE000FFCFA7E1B0E0E7EFFFE00C94A72E4B8B0B
:101FF0005C8B6D8B7E8B8F8B611110925B0286E008
:102000009E01235F3F4FD901E82F1D92EA95E9F722
:1020100095E0FE017396D90101900D929A95E1F732
:102020009C894E895F897B897D879E876F87598BC5
:10203000488BF901DE01179601900D928A95E1F720
:10204000CE0107960E94B61A81113EC086E0FE01BD
:102050003796DE01119601900D928A95E1F7FF8186
:10206000E8856A857B856115710531F0EF3F31F4B4
:1020700081E0FF3F19F403C081E001C080E080FDF2
:1020800023C02091200230E0C90101968770992772
:102090004091510250E08417950779F1F983EA8362
:1020A0007D836C8396E0929FD001939FB00D1124A5
:1020B000AF5DBD4FFE01319601900D929A95E1F70B
:1020C000809320020E94431A16E080915102909161
:1020D00020028917F9F0189FC00111248F5D9D4FD0
:1020E0000E94B61A8823B1F08091510290E00196C7
:1020F0008770992780935102E8CF0E94BF2A1092DF
:10210000200210925102EAE1F2E086E0DF011D9226
:102110008A95E9F76796E3E00C94C32E81FB662766
:1021200060F980E00E94D6280895A9E0B0E0EBE9CC
:10213000F0E10C94992EFC018081918123813481FE
:10214000232B31F09F3F31F491E08F3F19F403C00E
:1021500091E001C090E090FD82C67F0185E0DE0144
:10216000119601900D928A95E1F7F70122818981FC
:102170009A81222349F00E94C529182F682F89814E
:102180009A810E94392A03C00E94062A182F698169
:102190007A81812F0E94CA218C01F70182818823D4
:1021A00009F4F5C0980122513F452031310508F06E
:1021B0000AC18FEF93E00E94D82E8111F2C0025124
:1021C00037E2832E33E0932E002379F08114F4E07C
:1021D0009F0609F4E6C0C4010E94D82E811101C0F7
:1021E00001502FEF821A920AEFCF1E821F821886AB
:1021F0001986442443942AE0322E84010F5F1F4F36
:10220000C4010E94D82E8E831F82882309F4C9C07E
:102210009FEF980F933060F48F834E8232E0830EED
:10222000911CC8010E94D82E8887811102C0B9C0B4
:1022300048018E010A5F1F4FF80120812223E9F235
:10224000213009F04CC08181813049F46801F2E00D
:10225000CF0ED11CF80182810E94D12B0AC082309E
:1022600051F46801F2E0CF0ED11CF80182810E9486
:10227000352B860189C0833049F46801F2E0CF0E26
:10228000D11CF80182810E94DC2AF3CF843019F03E
:102290000F5F1F4F79C0F80122810E5F1F4F80E052
:1022A00090E030E0205331092A30310568F4389E3F
:1022B000A001399E500D1124C901840F951F0F5F95
:1022C0001F4FF8012081EDCF009709F45DC0EFE9C1
:1022D000FFE03197F1F700C000000197F5CFE22F42
:1022E000F0E0EA57FA4F5490822F869586958695AE
:1022F00090E0FC01EA58FA4F64902770712C022E8E
:1023000002C0759467940A94E2F7F1E06F22772493
:10231000FC01EA59FA4FA490B12C022E02C0B594E8
:10232000A7940A94E2F731E0A322BB24FC01EA5A05
:10233000FA4FC490D12C02C0D594C7942A95E2F7E5
:1023400081E0C822DD246114710419F081EE0E943D
:10235000352BA114B10419F086EE0E94352B852D82
:102360000E94D12BA114B10419F086EE0E94DC2A40
:102370006114710419F081EE0E94DC2AC114D104A9
:1023800019F08CE20E94D12B0F5F1F4F55CF003107
:102390003FE5130709F08CC481E00E94762A0E9471
:1023A000D72280915202877009F459C5F7018281C2
:1023B000882309F454C58091BB0182FF50C582E097
:1023C0000E940A1A4CC50031FFE51F0711F481E095
:1023D00005C001312FE5120721F482E00E94882A0E
:1023E000DECF033FFCE51F0749F406E221EE40EE95
:1023F00063EF7CE5C7010E94C720D3CF043F2CE5E3
:10240000120708F069C1083D3CE5130731F407E203
:1024100025EE45EE68ED7CE5EDCF093D9CE519071D
:1024200031F408E221E045EE69ED7CE5E3CF073DBC
:10243000ECE51E0731F406E221EE41EE67ED7CE5A6
:10244000D9CF882309F47DC110926B0203309DE53A
:10245000190758F40A3FECE51E0780F4C8018250C2
:102460009C45449708F057C109C00136FDE51F0798
:1024700029F0053A2DE5120709F04DC10E943719E0
:102480009093BB018093BA0101313CE5130709F435
:10249000C9C008F043C009309CE5190709F49EC083
:1024A00008F50530FCE51F0709F488C080F4033007
:1024B0003CE5130709F47BC008F07DC002309CE5C1
:1024C000190709F0F9C08091BA018160F3C00730A3
:1024D000ECE51E0709F47AC008F07CC08091BA01CF
:1024E0008061E8C00D302CE5120709F489C058F46A
:1024F0000B308CE5180709F47BC008F07DC0809193
:10250000BA01886071C00F30ECE51E0709F482C083
:1025100008F084C08091BA01877FCCC00D3F2CE5C4
:10252000120709F473C008F505318CE5180709F4A2
:1025300087C068F40331ECE51E0709F477C008F0A2
:1025400097C00E94BF2A8091BA018F77B3C00B3F1A
:102550002CE51207B9F108F056C00A3F8CE51807C0
:1025600009F0AAC08091BB0141C001309DE5190767
:1025700009F48AC058F40F3FFCE51F0709F45BC05B
:1025800008F06AC08091BB01826030C001363DE531
:10259000130709F47FC0053A8DE5180709F484C0D4
:1025A00002309DE5190709F087C060E06EC0809198
:1025B000BA0182607FC08091BA0116C08091BA01D1
:1025C000886078C08091BB0182604FC08091BA0161
:1025D000806270C08091BA0180646CC00E94BF2A82
:1025E0008091BA01806866C0846064C081603DC02B
:1025F0008091BA018E7F5EC08091BA018D7F5AC0F2
:102600008091BA0116C08091BB0118C08091BB01B6
:102610008D7F2BC08091BA018F7E4CC08091BA0112
:102620008F7D48C08091BA018F7B44C08091BA01F0
:10263000877F8B7F3FC08091BB018D7F8E7F15C0D0
:102640008091BA0182FB222720F991E0922790FB2A
:1026500082F990FB83F92EC08091BB01982F909551
:1026600091708E7F892B90FB81F98093BB0124C0F0
:102670000E94BF2A8091BA0187FB222720F991E0AE
:10268000922790FB87F916C061E08EE090E00E94EF
:10269000EC2E12C08091BA0184FB222720F991E030
:1026A000922790FB84F906C08091BA01982F9095EB
:1026B00090FB80F98093BA016091BA011091BB013F
:1026C00084E090E00E94EC2E612F82E290E00E9474
:1026D000EC2E0E94BF2A65CE053FFCE51F0731F4B2
:1026E00006E221EE42EE65EF7CE584CE053F2CE567
:1026F000120730F407E225EE44EE64EF7CE57ACE73
:10270000063F3CE5130709F09CCE07E225EE46EEB6
:1027100066EF7CE56FCE06318CE5180721F58091D8
:102720005C028A7A91E009F490E090931102882388
:1027300011F065E301C069E282E192E00E94742039
:102740000FC00631ECE51E0709F044C0809111026C
:10275000882309F4B4C265E382E192E00E94672015
:102760000E94CE191ECE0A353DE5130769F158F4D3
:1027700001159CE5190781F00E3D1C4509F047C085
:102780000E94541917C00C35FDE51F07A9F0F0F0A1
:10279000073A1D4579F03BC00E94BF2A8FEF94E3B2
:1027A000ECE081509040E040E1F700C000000E9462
:1027B000BF1FF7CD0E94DB0F8091BB0182FB8827F2
:1027C00080F991E0892703C081E001C080E00E9488
:1027D000271A1DC080915C0282720C3CECE51E073A
:1027E00009F41DC308F0A0C2063C2CE5120709F449
:1027F00002C308F075C2033C9CE5190709F4F1C255
:1028000008F05FC2023CFCE51F0709F4C5C2F701EE
:10281000828100811181882349F0C8010E94C52965
:10282000D82E682FC8010E94392A04C0C8010E940E
:10283000062AD82EB8018D2D0E94CA210E94AE17FB
:102840008C01982EF701D280A580A2949FE0A92246
:10285000809152028770B9F0DD20A9F0812F807F2E
:10286000803421F080E2800F883068F08091BB01D5
:1028700082FF09C082E00E940A1A8091520287708A
:10288000CC24C3948111C12CB12EB2948FE0B82214
:102890008B2D90E08C30910508F0E9C1FC01EC58DB
:1028A000FF4F0C94622F812F807F1F70882311F0BF
:1028B0001295107FDD20B9F0112309F4C6C180E222
:1028C000800F883010F0911006C080915C02182BA8
:1028D00010935C0205C080915B02182B10935B0281
:1028E0000E94CE19B2C1802F0E94DC2A112309F464
:1028F000BEC1005E083078F1992069F11095809191
:102900005B02182310935B0229C0812F807F1F7008
:10291000803211F01295107F992021F0F1E09F167E
:10292000D9F149C08091BB0182FD1BC0DD2069F057
:10293000112339F080915C02182B10935C020E94E5
:10294000CE1980E00E94352B92C180E00E94DC2AE3
:10295000112309F48CC1812F0E94C7190E94CE193E
:1029600086C1DD2081F080915D02AA2051F021E036
:10297000A21207C0182B181709F479C110935D0231
:1029800076C1812B10C0AA2021F031E0A31609F4F2
:102990006EC10E94C11927C0DD2041F085E08A1573
:1029A00008F465C1812F0E94D22A61C194E09A1572
:1029B00008F45DC118C0DD2049F0AA2099F3F701A1
:1029C000858180FF42C18F708583ECCFAA2059F0AA
:1029D000093309F049C1FFEF27EE33E0F150204001
:1029E0003040E1F73FC1812F0E94CB2A40C1812FA7
:1029F00086958695837019F0813059F038C1DD20B5
:102A000019F0C801937002C080E090E00E94A420F9
:102A100036C1DD2019F0C801937002C080E090E05B
:102A20000E948E202CC1812F837009F041C0D110EB
:102A300022C1302F329536953770330F330F802FE8
:102A40008F7090E0032E02C0880F991F0A94E2F75E
:102A500004FF0BC04FE050E002C0440F551F3A95F1
:102A6000E2F79A012095309502C020E030E01695FB
:102A700016951370123099F068F440915E025091EF
:102A80005F02113029F0822B932B8423952304C0FD
:102A9000842B952B822B932B0E94982AECC0822B9F
:102AA000932B20915E0230915F0282279327F4CF0F
:102AB000DD2019F0812F817001C08695882309F4EB
:102AC000DAC0302F329536953770330F330F802FA1
:102AD0008F7090E0032E02C0880F991F0A94E2F7CE
:102AE00004FF0BC04FE050E002C0440F551F3A9561
:102AF000E2F79A012095309502C020E030E016956B
:102B000016951370123079F0B8F4409191025091FB
:102B10009202113029F0822B932B842395230EC02F
:102B2000842B952B09C0822B932B209191023091FD
:102B300092028227932702C0822B932B0E946D2A38
:102B40009AC01F70DD2039F0812F0E94882A802FC3
:102B50000E94D22A90C0802F0E94CB2A812F0E94EF
:102B6000762A89C0802F92EF9916A1F1991538F035
:102B7000E0EF9E1659F0F1EF9F1639F162C023EF96
:102B8000921679F134EF9316E1F05BC0DD20A1F0ED
:102B900084E08A1508F46BC01F7181E090E0012E7B
:102BA00002C0880F991F0A94E2F720919102309198
:102BB00092028227932723C095E09A1508F457C004
:102BC000EBCF8091BB0182FD1DC0DD2029F0812F5C
:102BD0008F712AC0DD20D9F3812F8F710E94762A50
:102BE00046C0DD2051F01F7181E090E0012E02C04F
:102BF000880F991F0A94E2F702C080E090E00E94DB
:102C00006D2A35C0DD2099F01F71812F0E94882A1E
:102C10008091BB0182FF07C0E8E01E9FC001112424
:102C2000836080935202812F0E94882A20C081E015
:102C30000E940A1AF1E0FA15D0F482E00E940A1A02
:102C400016C0DD2021F0AA2011F2802F7BCEAA2011
:102C500019F2893349F42FEF37EE83E021503040E9
:102C60008040E1F700C00000802F0E94DC2A88EF3E
:102C70008B0D843020F40E94BA200E948E10CC204C
:102C800009F4EDC08091520280FDE9C0F701128283
:102C90008595859585950E94882AC7010E94951083
:102CA000809152028595859585950E94762AD7C098
:102CB00001319FE5190709F094CB82E06ECB69E200
:102CC0004BCD043C2CE5120709F490C0053C3CE5D3
:102CD000130709F09CCD44E25CE26EE27CE2A3C003
:102CE000093C9CE5190709F490C078F4073CFCE521
:102CF0001F0709F485C0083C2CE5120709F087CDB1
:102D000047E15CE26AE07CE28EC00A3C3CE51307E6
:102D100009F480C00B3C9CE5190709F078CD4EE51D
:102D20005CE260E77CE27FC0013DECE51E0709F450
:102D300086C0A0F40E3C2CE5120709F47AC008F412
:102D400075C00F3C8CE5180709F476C0003D9CE582
:102D5000190709F05CCD6EE089E079C0043DECE52F
:102D60001E0709F472C068F4023D2CE5120709F44D
:102D700069C0033D3CE5130709F049CD61E088E1F6
:102D80006BC0053D8CE5180709F464C00D359DE561
:102D9000190709F406CB3BCD8091BE0680FF1BC00E
:102DA0008E7F8093BE066091BE067091BF068091B3
:102DB000C0069091C1060E944B2C10929F06EFEF27
:102DC000F0E722E0E150F0402040E1F700C00000D1
:102DD0000E948B26E6CA81608093BE0661E08695DC
:102DE0003BC048E75DE262E87DE21DC042E85DE28B
:102DF00068E77DE218C04EE25CE264E27CE213C068
:102E00004AE05CE267E17CE20EC040EF5BE26DEF1E
:102E10007BE209C04DEF5BE260EF7BE204C040E77C
:102E20005CE26EE57CE20E948426BBCA61E081E040
:102E300013C065E082E00BC068E086E008C064E192
:102E40008FE005C067E185E102C062E289E10E948E
:102E50007026A7CA61E083E20E94362DA2CA299695
:102E6000E1E10C94B52ECF93DF93EC01009729F0AC
:102E7000BC0176956795617001C060E081E00E94B9
:102E8000D628209739F0BE01769567957695679597
:102E9000617001C060E082E00E94D628CE01DF911F
:102EA000CF91089580E008959091BA0192FF0DC0EE
:102EB000282F2871283019F4877F846006C0282FB6
:102EC0002471243011F48B7F886093FF0DC0282F6C
:102ED0002871283119F4877E846106C0282F247157
:102EE000243111F48B7E88612091BB0120FF0DC03D
:102EF000382F3871383019F4877F816006C0382F39
:102F00003171313011F48E7F886021FF0DC0282F80
:102F10002871283119F4877E816106C0282F21711C
:102F2000213111F48E7E886194FD877E0895F89496
:102F3000E82FE295EF70F0E031A1282F2F7081E0AB
:102F400090E001C0880F2A95EAF7982F9095932377
:102F500091A392A1892B82A378940895CF93DF93B4
:102F60008238910569F1B0F48133910509F46FC09D
:102F700048F48932910509F465C08A32910509F453
:102F80006BC08AC08533910509F457C08933910518
:102F9000B9F082C0833E910571F138F4803E91050D
:102FA000B1F0823E910511F177C0863E9105B9F1ED
:102FB000873E9105C9F1843E910509F06DC024C09A
:102FC0002091BA0120FD53C021FD51C065C0809100
:102FD000BA0180FD46C08091BB0180FF48C080914E
:102FE000BA0184FD3FC183EE90E03EC18091BA01F9
:102FF00082FF3AC0F4CF8091BA0182FD35C0809142
:10300000BB0180FD34C0EBCF8091BB0181FF35C097
:103010008091BA0184FD26C187EE90E025C18091A0
:10302000BA0183FF27C0F4CF8091BA0183FD22C08B
:103030008091BB0181FD21C0EBCF8091BA0185FD5C
:103040001FC021C08091BA0185FD1DC019C08091AB
:10305000BA0186FD1BC01DC08091BA0186FD19C052
:1030600015C089E390E000C182EE90E0FDC080EEE3
:1030700090E0FAC086EE90E0F7C084EE90E0F4C0F5
:1030800089E290E0F1C085E390E0EEC08AE290E052
:10309000EBC081E390E0E8C0811532E5930708F0CA
:1030A00069C0811541E5940728F0982F8827816F22
:1030B000906ADAC0883E910568F5803E910508F077
:1030C000D3C0883A9105B8F4853A910548F0855AFD
:1030D000E82FF0E0E45BFE4F808190E09064C4C094
:1030E0008130910509F4BBC008F4BCC0843091055F
:1030F00008F4B8C0B9C08F3B910508F0B3C0885A36
:10310000E82FF0E0EE0FFF1FE15BFE4F8081918121
:103110009464AAC0811520E59207F0F09C0174E048
:10312000369527957A95E1F7922F9370482F437043
:1031300021E030E002C0220F331F4A95E2F73C68DD
:10314000392B8F70982F9695969540E2949FC001E9
:103150001124822B932B88C0811530E4930718F03B
:103160009F70906A81C09C013A9521153F4108F4F7
:103170007BC078C0EC01C11586E5D807E8F5C1151C
:1031800025E5D20748F08C2F0E9454178F7190E0EC
:10319000982F8827906268C0C11534E5D30728F0BE
:1031A0009C2F8827846F906A5FC0AE0143705527BB
:1031B0002C2F26952695C115D34578F481E090E013
:1031C00002C0880F991F4A95E2F740E2249F9001C0
:1031D0001124822B932B9C6847C081E090E002C0B1
:1031E000880F991F4A95E2F740E2249F900111242D
:1031F000822B932B9A6838C0C1152AE5D207F8F4C0
:10320000C11539E5D30790F08C2F8F700E945417A9
:1032100094E0D695C7959A95E1F7CF70D0E0DC2F72
:10322000CC27D0699E01282BC9011EC0C11548E5D5
:10323000D407C0F09C2F8827806F906A15C0CE01FC
:1032400090568115904270F48D2F8F710E94541703
:10325000282F2F71CE0199279062922B05C081E013
:1032600090E002C080E090E0DF91CF910895CF938D
:1032700084E090E00E94D82EC82F82E290E00E9465
:10328000D82E2C2F30E0A901582BCA01CF910895D8
:1032900080E090E00E94E62E883E9E4F19F40E9446
:1032A0005726089580E0089568EE7EEF80E090E074
:1032B0000E940A2F60E082E090E00E94EC2E60E025
:1032C00083E090E00E94EC2E10925F0210925E026A
:1032D00060E084E090E00E94EC2E64E082E290E006
:1032E0000E94EC2E60E085E090E00E94EC2E60E011
:1032F00086E090E00E94EC2E6FEF87E090E00E9465
:10330000EC2E40E050E0BA0188E090E00E94FE2EF2
:1033100060E08DE090E00E94EC2E40E050E0BA01C9
:1033200088E190E00E94FE2E60E087E190E00E943C
:10333000EC2E40E050E0BA018CE190E00E94FE2EBD
:1033400060E070E080E290E00E940A2F40E050E0F0
:10335000BA0188E190E00E94FE2E80E00E942826BB
:103360000E94472640E050E0BA018FE090E00E94C2
:10337000FE2E40E050E0BA0183E190E00E94FE2E74
:10338000089580915D02811110925D0208958095EB
:1033900090915C02892380935C02089590915C0275
:1033A00080915B02982B9093120280915D0288239A
:1033B00089F0892B80931202E4E1F2E097E080E04B
:1033C000915029F021912223D9F38F5FF9CF8111F8
:1033D0000E94C11948E050E063E572E082E192E0AA
:1033E0000E94AD2F892BA9F088E0E2E1F2E0A3E58D
:1033F000B2E001900D928A95E1F7E0916E02F091B2
:103400006F02309731F00280F381E02D82E192E08B
:10341000099508952091520280958223809352024B
:10342000982F977099F430E0482F082E000C550B18
:103430002417350759F09091BB0192FF07C085957D
:10344000859585950E94762A109252020895CF9311
:10345000C091BB01C2FB992790F9981791F080FBAE
:10346000C2F9C093BB016091BA0184E090E00E9470
:10347000EC2E6C2F82E290E00E94EC2E82E00E9403
:103480000A1ACF91089580915102909120028917D4
:1034900019F08F5F8770FBCF08950F931F93CF9321
:1034A000DF9380911F0282958F7009F05AC080913E
:1034B0001C02882309F455C080915102109120020A
:1034C00060911A0270911B02C0911D02D0911E02E0
:1034D00091E06F3F09F090E0292F06E0811709F491
:1034E00040C0209721F07F3F21F030E003C031E061
:1034F00001C0322F90E030FD31C0089FF001099FDC
:10350000F00D1124DF01AF5DBD4F11963C91119775
:10351000371324C03C91361321C012963C91129768
:1035200031111CC013964D915C9114974C1B5D0B8F
:10353000483C510598F480911F028F708061809300
:103540001F02EA5DFD4F80818F70806180838AE178
:1035500092E00E9495100E94431A03C00196877062
:10356000BDCFDF91CF911F910F910895A1E1B0E000
:10357000ECEBFAE10C949F2E8C0185E0F801DE0162
:103580001D9601900D928A95E1F7F801E2809091E5
:103590001A0260911B0240911D0250911E024115BA
:1035A000510531F06F3F31F481E09F3F19F403C0C2
:1035B00081E001C080E0F82FF1709F2E80FD1BC1DB
:1035C000F80130812181C380D4808AE1A82E82E075
:1035D000B82EF0901C02F601E41BF50BFF2009F455
:1035E000C7C080911F02E83CF10508F092C0482F47
:1035F000407F09F051C0621311C093130FC0FE2C1D
:10360000E1100CC08F70806180931F02C5010E9481
:10361000951080911F02F80185832AC1C114D1043D
:1036200031F02F3F31F481E03F3F19F403C081E0D6
:1036300001C080E080FD03C081E08E2502C080E0F3
:1036400090E0F82FF170FF2E80FF1CC08091510296
:103650004091200256E0841709F4E8C090E0589F9A
:10366000F001599FF00D1124EF5DFD4F618126138C
:1036700006C06081631303C06281E61203C0019635
:103680008770E9CFFE2CEE2009F4F2C080911F0272
:10369000816080931F0249C0621306C0931304C067
:1036A000E11002C0F80186C0C8010E949F2A882349
:1036B00051F1EE2041F120911F02822F82958F70EF
:1036C00090E0029774F080911A0290911B02988703
:1036D0008F831986DB86CA862C87CE0107960E94C7
:1036E000951086E0F801AAE1B2E001900D928A956A
:1036F000E1F70E944D1A0AC06217C9F0C8010E9482
:103700009F2A81111EC0C8010E949510FF24F394C6
:10371000AFC0482F407F81F78AE192E00E94951068
:1037200086E0F50111928A95E9F7F12CA1C0931377
:10373000E5CFE110E3CFF8018583C8010E94951021
:1037400054C0EE2001F320911F02822F82958F70CA
:1037500090E0029734F280911A0290911B029A83B2
:1037600089831B82DD82CC822E83CE010196B7CF66
:10377000E83CF105D0F5FE2CEE2029F2621327C0BB
:10378000931325C020911F0220FD18C0822F82951F
:103790008F70482F50E04115510581F0F8012583C5
:1037A0004F30510541F08F5F982F9295907F822F77
:1037B0008F70892B8583C8010E94951086E0F801DF
:1037C000AAE1B2E001900D928A95E1F751C0C801DB
:1037D0000E949F2A811185CF80911F028160809372
:1037E0001F02C8010E94951043C086E0F5011192A6
:1037F0008A95E9F73DC0EE2009F485CFC8010E9403
:103800009F2AF82E882309F47ECF86E0F801AAE1EA
:10381000B2E001900D928A95E1F780911A029091A1
:103820001B020E94F9290E944D1A22C03D872E8753
:103830008D859E850E94F929292F22952F7022308F
:1038400028F49F7039F0811105C00BC0243028F492
:103850009F7049F4805E883020F0C8010E94951066
:103860009F2CF92C05C0F8019581907F99F7F9CF2D
:103870008F2D6196EBE00C94BB2EA6E0B0E0E3E464
:10388000FCE10C949D2EAE014F5F5F4F7A0186E004
:10389000FA0111928A95E9F702E211E06A0188E2E1
:1038A000A82E81E0B82E88248394912CF801808181
:1038B0008F3F09F441C0F894E82FE295EF70F0E0F3
:1038C00021A18F70A40102C0440F551F8A95E2F711
:1038D000CA01922F982B91A392A18095892382A34C
:1038E000789400C0E8E2F1E0712C31E021912F3FA3
:1038F00089F0A22FA295AF70B0E090968C9190E0E5
:103900002F7002C0959587952A95E2F780FD02C039
:10391000832F01C080E0782A330F51E0EC32F507A5
:1039200029F7F80180818F3F11F00E949717F0EA84
:10393000FA95F1F7F60170820F5F1F4FFFEFCF1A74
:10394000DF0AA016B10609F0B1CF46E050E0B7019A
:1039500084EB91E00E94AD2F11E0009709F410E094
:10396000892B89F086E0F701A4EBB1E001900D927C
:103970008A95E1F781E0809362020E943220909361
:10398000610280936002809162028823A1F080919D
:103990006002909161020E941720059760F0E4EBAD
:1039A000F1E0ABE0B2E081918D9341E0EA3BF407B6
:1039B000D1F710926202812F2696EDE00C94B92E79
:1039C0000895089580917C02089580937702709302
:1039D000790260937802809187028430F9F48093B1
:1039E000E9008FEF9091E800815095FD06C095EDBC
:1039F0009A95F1F700008111F5CF8091E80085FFDD
:103A00000DC040E050E063E070E087E792E00E9484
:103A10000E238091E8008E778093E8000895BC0122
:103A200084E00E94E51C0895BC0183E00E94E51C2F
:103A30000895CF93DF9321E02093E9002FEF309199
:103A4000E800215035FD06C035ED3A95F1F700004C
:103A50002111F5CF2091E80025FF14C0EC0140E0D2
:103A600050E068E070E00E940E238091E8008E77BD
:103A70008093E80088E0FE01ADE7B2E001900D928E
:103A80008A95E1F7DF91CF9108951F920F920FB6BB
:103A90000F9211242F933F934F935F936F937F93D4
:103AA0008F939F93AF93BF93CF93DF93EF93FF9346
:103AB000C091E900CF708091EC00D82FD17080FDCB
:103AC000D0E81092E9008091F000877F8093F000A9
:103AD00078940E9438231092E9008091F000886069
:103AE0008093F000CD2BCF70C093E900FF91EF9150
:103AF000DF91CF91BF91AF919F918F917F916F9106
:103B00005F914F913F912F910F900FBE0F901F909B
:103B10001895E8EDF0E080818E7F80831092E200BE
:103B20001092DA001092E100A0EEB0E08C9181607A
:103B30008C9380818F77808319BCA7EDB0E08C9146
:103B40008E7F8C9380818F7E808310927A0208957D
:103B50002091E4003091E50095E64091EC00842F3F
:103B6000817040FF23C08091E80080FD1DC08091DE
:103B70008702882399F0853099F08091EB0085FDCC
:103B800011C04091E4005091E5002417350729F356
:103B9000915011F09A01E1CF84E0089582E00895F8
:103BA00083E0089581E0089580E008954091E80061
:103BB00042FFDDCF08958091890287FF11C0809177
:103BC000E80082FD05C0809187028111F8CF11C005
:103BD0008091E8008B770BC080918702882349F0A1
:103BE0008091E80080FFF8CF8091E8008E77809385
:103BF000E8000895982F973068F59093E90098179A
:103C000039F07091EC002091ED005091F00003C06C
:103C1000242F762F50E021FD02C09F5FECCF309122
:103C2000EB003E7F3093EB003091ED003D7F309311
:103C3000ED003091EB0031603093EB007093EC00BD
:103C40002093ED005093F0002091EE0027FDE5CF8A
:103C500080E008958F708093E90081E00895A0E0EE
:103C6000B0E0E5E3FEE10C94A22EC8EDD0E088813F
:103C70008F7E8883E7EDF0E080818160808384E03F
:103C800082BF81E080937A0288818E7F888302EEF2
:103C900010E0F80110821092DA0081EEC82ED12CCB
:103CA000F601108288818F77888388818068888375
:103CB00088818F7D888319BC1092870210928802B8
:103CC000109286021092850290EEE92EF12CF701F7
:103CD00080818B7F808388818160888342E060E07F
:103CE00080E00E94FA1DF60180818E7F8083F801BA
:103CF000808181608083808188608083F7018081FA
:103D00008E7F8083888180618883CDB7DEB7E8E0CD
:103D10000C94BE2E1F920F920FB60F9211242F9368
:103D20003F934F935F936F937F938F939F93AF9343
:103D3000BF93EF93FF938091E10082FF09C08091D0
:103D4000E20082FF05C08091E1008B7F8093E1005B
:103D50008091DA0080FF2AC08091D80080FF26C0C1
:103D60008091DA008E7F8093DA008091D90080FF05
:103D700018C080E189BD82E189BD09B400FEFDCF94
:103D800081E08093870280917A0281110FC00E94A6
:103D9000891D0E942F1E8091E20084608093E200C2
:103DA00005C019BC1092870210927A028091E1003E
:103DB00080FF17C08091E20080FF13C08091E20075
:103DC0008E7F8093E2008091E20080618093E20028
:103DD0008091D80080628093D80019BC85E08093E0
:103DE00087028091E10084FF30C08091E20084FF6F
:103DF0002CC080E189BD82E189BD09B400FEFDCF00
:103E00008091D8008F7D8093D8008091E1008F7ED3
:103E10008093E1008091E2008F7E8093E2008091A8
:103E2000E20081608093E20080918802882311F093
:103E300084E007C08091E30087FD02C081E001C0FB
:103E400083E080938702809187028091E10083FF65
:103E500027C08091E20083FF23C08091E100877F2B
:103E60008093E10082E08093870210928802809123
:103E7000E1008E7F8093E1008091E2008E7F80934D
:103E8000E2008091E20080618093E20042E060E025
:103E900080E00E94FA1D8091F00088608093F0001D
:103EA000FF91EF91BF91AF919F918F917F916F9112
:103EB0005F914F913F912F910F900FBE0F901F90E8
:103EC000189520918F02309190022617370748F0FD
:103ED0006115710539F42091E8002E772093E800F0
:103EE00001C0B901FC0120E06115710579F18091F3
:103EF00087028823F1F18530F1F18091E80083FD9C
:103F00003CC08091E80082FD2EC08091E80080FFD7
:103F1000EBCF2091F3008091F20090E0922B61159D
:103F2000710551F08830910538F421912093F1000A
:103F3000615071090196F3CF21E0089709F020E064
:103F40008091E8008E778093E800CECF2111CFCF0B
:103F50000AC080918702882361F0853061F08091EA
:103F6000E80083FD0AC08091E80082FFF2CF80E084
:103F7000089582E0089583E0089581E00895F8941B
:103F800081E08093E00080E28093D800E9ECF0E0EB
:103F900010828FE19EE40197F1F700C000001DBA86
:103FA000109268001CBC10BE1FBA10927A001092CA
:103FB0006E0010926F0010927100109272001082C9
:103FC000ECEBF0E0108214B817B81AB81DB810BAAC
:103FD000108215B818B81BB81EB811BA0C94003F5F
:103FE000089578941F920F920FB60F9211248F9319
:103FF0009F93AF93BF938091730290917402A091AD
:104000007502B09176020196A11DB11D80937302D5
:1040100090937402A0937502B0937602BF91AF9112
:104020009F918F910F900FBE0F901F9018959C013C
:104030004FB7F8948091730290917402A091750229
:10404000B09176024FBF821B930B08952FB7F8945F
:104050006091730270917402809175029091760262
:104060002FBF08952FB7F894809173029091740236
:10407000A0917502B09176022FBF08951F920F9202
:104080000FB60F9211248F939F93AF93BF9380919C
:104090007202811113C08091730290917402A091F9
:1040A0007502B09176024196A11DB11D80937302F5
:1040B00090937402A0937502B0937602BF91AF9172
:1040C0009F918F910F900FBE0F901F9018959C019C
:1040D0002A5F3F4FFC014281461301C012820196C4
:1040E00082179307B9F708959C01FC0132969FEF60
:1040F00080E04191461789F09F3F19F4411101C0BA
:10410000982F8F5F8630A9F79F3F39F0F901E90FAB
:10411000F11D97FDFA95628308950895209170022C
:10412000309171022817390771F0909371028093D2
:104130007002E0916E02F0916F02309721F00084DE
:10414000F185E02D0995089520916C0230916D0262
:104150002817390771F090936D0280936C02E091FB
:104160006E02F0916F02309721F00680F781E02D0A
:1041700009950895E0916E02F0916F02309729F051
:104180000190F081E02D0995089580E008950F9346
:104190001F93CF93DF93C42FD22FFC0182818823FA
:1041A000B1F040936B020E94322090936A02809398
:1041B000690280E28C0F883008F04DC0C77081E042
:1041C00001C0880FCA95EAF70E94D22A44C08091A4
:1041D0006B02481330C08091690290916A020E947C
:1041E0001720883C910538F510E21D0FCD17B9F066
:1041F00080E28C0F883040F4C77081E001C0880FE6
:10420000CA95EAF70E94CB2A183010F581E09D2F5D
:10421000977001C0880F9A95EAF70E94D22A802FE2
:104220000E94D12B1830B8F4D77081E001C0880FFC
:10423000DA95EAF70AC080E28C0F883060F4C77024
:1042400081E001C0880FCA95EAF70E94CB2A03C01B
:10425000802F0E94D12BDF91CF911F910F91089554
:10426000CF93DF93C7E2D3E060E0CE010E94EC2E53
:104270002196C11584E0D807B9F7DF91CF91089551
:104280001F93CF93DF93962F8031E8F46630D8F4F4
:104290004430C8F4632F122FC42FD0E0CC0FDD1FA1
:1042A00028E0929FC00DD11D112490E3899FC00D7D
:1042B000D11D1124CE0187960E94EC2E612FCE01D4
:1042C00088960E94EC2EDF91CF911F910895A0E077
:1042D000B0E0EDE6F1E20C94A02EA12CE12CF12C43
:1042E000B12C00E010E0C0E0D0E06701C00ED11EAC
:1042F000F601EC0FFD1FEE0FFF1FE65FF94F259152
:1043000034914C2F6B2D8A2D0E9440212196C43070
:10431000D10571F70C5F1F4FB39486E0B812E3CF5D
:1043200088E1E80EF11CA39480E1A812D9CFCDB7A3
:10433000DEB7EAE00C94BC2E0F931F93CF93DF936C
:10434000803108F56630F8F44430E8F4C42FD0E04A
:10435000CC0FDD1F28E0629FC00DD11D112430E37A
:10436000839FC00DD11D1124CE0187960E94D82EA7
:1043700090E0182F0027CE0188960E94D82E980131
:10438000282BC90102C080E090E0DF91CF911F91FE
:104390000F910895803148F4763038F4643028F471
:1043A000462F672F0E949C21089580E090E0089599
:1043B0008091680290916702882389F0992369F0BF
:1043C00062E070E088E096E00E94E722892B19F015
:1043D000809167020895109267029091670281E0D0
:1043E00089270895809168028823F9F00E94262089
:1043F000DC01CB01805A9541AF4FBF4F80936302E0
:1044000090936402A0936502B09366028091670264
:1044100081110BC062E070E086E096E00E94E72226
:10442000892B19F481E080936702809167020895D7
:1044300086E290E00E94EC2E0895CF93DF93C09126
:104440009C06D0919D068A30B1F420919302CE0152
:1044500086599240622F70E00E94842E281B822F82
:1044600066E00E94202FC82FC15008F48FC080E260
:104470000E941D22F9CF8D30E9F4C659D240209117
:104480009302622F70E0CE010E94842E281B822F9F
:104490009E01280F311D2115344018F080E0C0E046
:1044A000D0E0C80FD11DCA56DD4FD0939D06C093F2
:1044B0009C066CC096E0FE01A6E9B6E001900D9264
:1044C0009A95E1F7803E30F086E0FE0111928A95E0
:1044D000E9F70BC0F6E08F9FB0011124635A764FC5
:1044E00046E050E0CE010E94CF2EC0919C06D091B4
:1044F0009D0646E050E0BE0186E996E00E94AD2FA1
:10450000892B49F19E0126593240A90186E0569532
:1045100047958A95E1F781E090E0BC0102C0660F03
:10452000771F4A95E2F74091940250919502462BED
:10453000572B2B5F3F4F66E0369527956A95E1F73D
:1045400002C0880F991F2A95E2F7842B952B909330
:104550009502809394029E0120593240409193022B
:10456000642F70E0C9010E94842E481B463010F46D
:10457000240F311D211584E0380710F020E030E0D1
:104580002A563D4F30939D0620939C06DF91CF9194
:104590000895CF93DF93EC01FE018491882321F0ED
:1045A0000E941D222196F8CFDF91CF91089580912E
:1045B0009102909192029C0126703327263031059A
:1045C00011F4886001C0877F0E946D2A0895EF92E0
:1045D000FF920F931F93CF93DF93EC017B0164E66F
:1045E00070E088E70E94932D8C01EC0EFD1ECE1525
:1045F000DF0561F017FD0AC0FE01849164E670E0FA
:104600000E94082E8C012196892B89F30E94802E0E
:10461000C801CDB7DEB7E6E00C94C02EEF92FF9252
:104620000F931F93CF93DF937C018B010E94A81DF2
:10463000811119C0E70101151105A1F08091E80071
:1046400085FD0AC08091E8008E778093E8000E9483
:10465000A81D882381F307C089918093F100015040
:104660001109E9CF80E0CDB7DEB7E6E00C94C02EAB
:10467000AAE2B0E0EEE3F3E20C94A72EE9E8F2E060
:1046800081E992E02091F10021938E179F07D1F7E5
:1046900080918A02833009F463C030F4813071F074
:1046A000823009F49DC0B4C08A3009F489C08B30CF
:1046B00009F46EC0893009F0ABC020C08091890236
:1046C000813A09F0A5C08091E800877F8093E800D7
:1046D00080918D0290918E02892B21F468E08DE704
:1046E00092E003C060E080E090E070E00E94611F13
:1046F0008091E8008B778093E8008AC080918902DE
:10470000813209F085C080918D0290918E020097D0
:1047100019F0029709F07CC08091E800877F8093B0
:10472000E8008091E80082FD05C080918702811138
:10473000F8CF6EC02091F3008091F20090E0922BB0
:10474000029731F48091F100813011F0863021F42C
:104750008091F10080937C028091E8008B7754C0B7
:1047600080918902813A09F053C080918D02909125
:104770008E02892B09F04CC08091E800877F8093DE
:10478000E8008091E80080FFFCCF8091130137C0E2
:10479000809189028132E1F580918D0290918E02A3
:1047A000892BB1F58091E800877F8093E8000E9413
:1047B000DB1D80918B02809313010E94BF2A28C0C9
:1047C00080918902813221F58091E800877F809372
:1047D000E8000E94DB1D80918C0280937B0218C050
:1047E00080918902813AA1F48091E800877F8093CB
:1047F000E8008091E80080FFFCCF80917B028093ED
:10480000F1008091E8008E778093E8000E94DB1D24
:104810008091E80083FFDFC18091890290918A0234
:10482000492F50E04A30510508F0D5C1FA01E0584F
:10483000FF4F0C94622F803821F0823809F0CBC1F1
:1048400008C08091850290918602992389F0826048
:104850000FC080918D028F70873008F0BCC18093AB
:10486000E9008091EB0085FB882780F91092E90030
:104870009091E800977F9093E8008093F100109268
:10488000F10070C1282F2D7F09F0A5C1882319F0F0
:10489000823061F0A0C180918B02813009F09BC110
:1048A000933009F080E0809386022EC080918B02C5
:1048B00081112AC080918D028F702FEF280F263032
:1048C00008F089C18093E9002091EB0020FF1CC013
:1048D000933021F48091EB00806214C09091EB0042
:1048E00090619093EB0021E030E0A90102C0440FF9
:1048F000551F8A95E2F74093EA001092EA008091F2
:10490000EB0088608093EB001092E9008091E80052
:10491000877F8093E8000E94DB1D5DC181115BC130
:1049200010918B021F778091E3008078812B809318
:10493000E3008091E800877F8093E8000E94DB1D00
:104940008091E80080FFFCCF8091E3008068809335
:10495000E300111102C082E001C083E0809387026E
:104960003AC18058823008F036C120918B023091D4
:104970008C022C3D53E0350779F583E08A838AE287
:1049800089834FB7F894DE01139620E03EE051E2B0
:10499000E32FF0E050935700E49120FF03C0E2952D
:1049A000EF703F5FEF708E2F90E0EA3010F0C79607
:1049B00001C0C0968D939D932F5F243149F74FBF5F
:1049C0008091E800877F8093E8006AE270E0CE0182
:1049D00001960E94611FB4C080918D0290918E0259
:1049E000432F552743305105A9F068F44130510554
:1049F00009F400C14230510509F0EDC08BE590E0AB
:104A0000EEEAF8E04BC04132510529F1423251053E
:104A100089F1E1C0C901992781309105A1F058F0D1
:104A2000029709F0D8C0EBE1F9E0E4918E2F90E015
:104A3000EBE1F9E030C0E9E5F9E0E4918E2F90E098
:104A4000E9E5F9E028C0E7E3F9E0E4918E2F90E092
:104A5000E7E3F9E020C08330910508F0BCC0880F7F
:104A6000991FFC01EA57FE4F0190F081E02D89E08B
:104A700090E014C08330910508F0ADC0FC01EE0F4A
:104A8000FF1FE058FE4F0190F081E02DDC01A3589C
:104A9000BE4F8C9190E0009709F49DC02091E800F2
:104AA000277F2093E80020918F02309190022817F1
:104AB000390708F4C90140E0009789F12091870285
:104AC000222309F43DC02530D9F12091E80023FDCF
:104AD00037C02091E80022FD2FC02091E80020FF80
:104AE000EBCF4091F3002091F20030E0342B00979F
:104AF00059F02830310540F444914093F10031964B
:104B000001972F5F3F4FF3CF41E02830310509F087
:104B100040E02091E8002E772093E800CDCF4111AE
:104B2000CDCF0AC080918702882351F0853041F0B3
:104B30008091E80083FD04C08091E80082FFF2CFFD
:104B40008091E8008B778093E80045C0803809F0B9
:104B500042C08091E800877F8093E80080918802BE
:104B60008093F1008091E8008E77D3CE811133C01D
:104B700080918B0290918C029927029764F5809125
:104B8000E800877F8093E80010918B0210938802E1
:104B90000E94DB1D111106C08091E30087FD02C059
:104BA00081E001C084E08093870242E061EC81E013
:104BB0000E94FA1D42E261EC84E00E94FA1D42E28A
:104BC00061EC82E00E94FA1D42E260EC83E00E9408
:104BD000FA1D809187028091E80083FF10C08091C8
:104BE000E800877F8093E8008091EB0080628093EB
:104BF000EB0005C082E190E0E9E0F9E04FCFAA9632
:104C0000E3E00C94C32E0895CF93DF93EC01EEEB19
:104C1000F6E0438162818C810E941E2D8C818F5F22
:104C20008C83DF91CF910895CF93DF93EC01EC81DA
:104C3000F0E0E655F14F4491EEEBF6E062818181C0
:104C40000E941E2D8C818F5F8C83DF91CF91089500
:104C5000CF93C82F811102C06FEF01C062E283E2DF
:104C600090E00E94EC2EC11102C06FEF01C067E01E
:104C700084E290E00E94EC2EC11102C06FEF01C0EF
:104C800067E185E290E00E94EC2ECF91089580E0EC
:104C90000E94282660E070E0CB010E9418220E944A
:104CA00067210E94302181E00E942826089583E236
:104CB00090E00E94D82E823281F484E290E00E943B
:104CC000D82E873051F485E290E00E94D82E91E0F2
:104CD000873109F090E0892F01C080E0817008954C
:104CE0009091BE0690FF04C09695981748F003C0B7
:104CF000811106C090E0961718F40E94822D089545
:104D000061E00E94362D0895882311F0FA0101C058
:104D1000FB0109950895A8E1B0E0E1E9F6E20C9401
:104D20009C2E8091BE06982F917080FF08C08090C5
:104D3000A1069090A2068114910469F424C0E6EAC9
:104D4000F6E02EEB36E011821082128233962E1797
:104D50003F07C9F7ECCF9923B1F0A12CB12C662401
:104D60006394712C2091A006C3010A2C01C0880F06
:104D70000A94EAF7822309F444C0F401C590D49060
:104D8000C114D10469F402EA1EE09E012F5F3F4F77
:104D9000AE01475E5F4FB90140C0F5E0CF0ED11CB8
:104DA00045E050E0B601CE0101960E94CF2E098168
:104DB0000F3F39F110E08A819801280F311DC90198
:104DC0002930310514F088E090E07C01EE0CFF1CE6
:104DD0008E0D9F1DFC01EA55F94F7F01C801880F18
:104DE000991F080F191F0A55194F0E151F05A8F610
:104DF00098014D816C818B810E94922C0D5F1F4F19
:104E0000F4CF22E0820E911C3FEFA31AB30A88E090
:104E1000A816B10409F0A6CFB6CFF801849190E0AE
:104E2000DC01AA0FBB1F8A0F9B1FDC01AA55B94FDB
:104E30008D919D91AC91FB0181939193A193BF01C1
:104E40000F5F1F4F4E175F0741F7539A8BB1877F54
:104E50009BB198606FB7F8942417350799F0F90162
:104E600071919F01E8E09BB9000000C077FF8BB90A
:104E7000770F000000C000C000C08BB900C0EA95E9
:104E800091F7EACF6FBF8FE594E00197F1F700C08B
:104E900000006896EEE00C94B82EEF92FF920F930C
:104EA0001F93CF93DF938C01C6EAD6E0E12CF12C5F
:104EB000F8018481F4E0EF16F1041CF4882339F042
:104EC00002C0811104C09E014091C10602C09E0132
:104ED00040E06091C0068091BF060E94922C8FEF47
:104EE000E81AF80A239698E0E916F10409F70E94F7
:104EF0008B26F801848190E0019681709927848344
:104F0000CDB7DEB7E6E00C94C02EA0E0B0E0EBE851
:104F1000F7E20C949E2EEC014C81042F10E09801D6
:104F2000D8010E94772F9B01AC010E948D2F6B014D
:104F30007C01E0E2F0E0E01BF10BA5E5B0E09B01B5
:104F4000AC010E948D2F4B015C019F01DF010E948B
:104F50006F2F9B01AC010E94982F9B01AC012C0D7F
:104F60003D1D4E1D5F1DC501B4010E94402F822FC3
:104F7000F22E99E2921728F093E0299F90011124D4
:104F80000DC025E530E0281B3109C901880F991FA4
:104F9000280F391F37FF02C02F5F3F4F35952795E8
:104FA000122F109596EAC92E96E0D92E00E085E5DD
:104FB000E82EEF1801FD02C08E2D01C08F2D960145
:104FC000412F6091C0060E94922C0F5F83E0C80EB3
:104FD000D11C083079F70E948B268C81811102C088
:104FE00091E003C0803219F49FEF909316019091E5
:104FF0001601890F8C83CDB7DEB7ECE00C94BA2E86
:105000000F931F93CF93DF93C6EAD6E0FE01118280
:1050100010821282339686E0EE3BF807C1F700E07B
:1050200010E08091A406082E000C990B08171907B0
:1050300094F080911501082E000C990B80179107B0
:1050400054F09E014091C1066091C0068091BF0658
:105050000E94922C03C0198218821A820F5F1F4F80
:10506000239608301105E9F60E948B2680911401E1
:105070009091A406980F9093A40620911501280FF3
:1050800020931501121614F497301CF0819580932B
:105090001401DF91CF911F910F910895A0E0B0E02E
:1050A000E4E5F8E20C94A22EFC01828180FF03C0AB
:1050B000DD24DA9402C0DD24D394C6EAD6E000E011
:1050C00010E0198218821A8294E0E92EF12CC12C8A
:1050D0008091A3068C0D893014F0877002C087FD83
:1050E000885F082E000C990B0817190791F480911E
:1050F000C1068E9DA0018F9D500D11245595479599
:10510000559547959E016091C0068091BF060E940B
:10511000922CCD0CF1E0EF1AF108D1F60F5F1F4F82
:1051200023960830110569F60E948B268091A3060C
:1051300091E0D91206C0811102C087E006C08150FB
:1051400004C090E00196877099278093A306CDB79D
:10515000DEB7E8E00C94BE2EEF92FF921F93CF9340
:10516000DF93EC0186EAE82E86E0F82E10E08C81D1
:1051700097014091C1066091C006810F0E94922C58
:10518000115E83E0E80EF11C183F89F70E948B2620
:105190009A818C8190FF02C08F5F01C081508C8307
:1051A000DF91CF911F91FF90EF90089521E030E0C3
:1051B000A90102C0440F551F8A95E2F7CA01209148
:1051C000A006662311F0822B02C080958223809373
:1051D000A00680919F06811106C08091BE0660E006
:1051E00086950E94362D08959091BE0690FF0CC0C2
:1051F000E6EAF6E0818360834283339696E0EE3BF5
:10520000F907C1F70E948B260895A3E0B0E0EBE018
:10521000F9E20C94A62E8C018091A50681110AC09A
:105220009E012F5F3F4F4FEF6FEF0E94922C8A81BC
:105230008093A506F8018481813051F028F08230F6
:1052400061F44091A5060AC08091A50640E007C020
:105250006091A50640E080E003C040E080E060E0AF
:105260000E94F428F801848190E0019663E070E0E8
:105270000E942C2F84832396E4E00C94C22EA3E09A
:10528000B0E0E5E4F9E20C949D2EF82EB62EE42E63
:10529000A22E9091BE0690FF67C0E92FE695AE2F33
:1052A000B0E0A457BE4F8C9180939E069E7F9230B3
:1052B00061F49E012F5F3F4F8F2D0E94922C4B81F6
:1052C00069818A810E94F4283DC0823019F4E090FF
:1052D000C10638C0863019F4F090BF0633C089305B
:1052E000D9F3893179F5E9512E2F2170722EE69587
:1052F000F0E0E356F14FE4910E2F10E036EAC32EB2
:1053000036E0D32E812C912CC40123E0969587950D
:105310002A95E1F7711002C08F0D03C02F2D281BB5
:10532000822F96014E2D6B2D0E94922C800E911E85
:1053300083E0C80ED11C2EEBC21626E0D20621F760
:105340000E948B26F092BF06B092C006E092C10682
:10535000AA2051F06091BE067091BF068091C006F0
:105360009091C1060E944B2C2396EDE00C94B92E2F
:1053700080E090E00E94A42080E090E00E948E20D7
:1053800010925B020E94CE190895A0E0B0E0EBEC11
:10539000F9E20C94A12E7C010091910210919202ED
:1053A00080915E0290915F02082B192BCFE0D0E034
:1053B000CC24C394D12CC6010C2E02C0880F991F97
:1053C0000A94E2F780239123892B21F4219798F7FF
:1053D000B12C09C0BC2EB7018C2F0E94CA210E949B
:1053E000AE17019799F38B2DCDB7DEB7E9E00C949A
:1053F000BD2ECF93DF93EC010E94C529BE010E9410
:10540000CA210E94AE17DF91CF910895963078F5AA
:10541000843068F5E82FF0E084E0989FE00DF11DFE
:1054200011249E2F977083E0F695E7958A95E1F712
:10543000EE0FFF1FEE0FFF1FED53F94F40E050E05E
:1054400080E0219130E0092E02C0369527950A941C
:10545000E2F721703327042E01C0220F0A94EAF7E5
:10546000822B4F5F5F4F4430510559F7089580E01C
:105470000895963088F5843078F5E82FF0E084E0E0
:10548000989FE00DF11D11248E2F877051E001C00F
:10549000550F8A95EAF783E0F695E7958A95E1F747
:1054A000EE0FFF1FEE0FFF1FED53F94F20E030E02E
:1054B00070E04081CB01022E02C0969587950A9438
:1054C000E2F78170819584278523842781932F5F5C
:1054D0003F4F2430310569F708950E9433179093A8
:1054E0009202809391020E94B829089521E030E051
:1054F00002C0220F331F8A95E2F7209530958091E4
:10550000910290919202822393230E946D2A089522
:1055100021E030E002C0220F331F8A95E2F780912C
:10552000910290919202822B932B0E946D2A0895F2
:1055300090935F0280935E020E94B8290895FC0157
:10554000808191810E94F92992959F70963079F01F
:1055500010F4925001C09A50923068F4803F69F084
:1055600018F4883E40F409C0843F29F406C0883E00
:1055700020F0813F11F080E0089581E008951092BD
:105580005C0286E0E4E1F2E0DF011D928A95E9F732
:105590000E94B8290895882321F00E94C7190E940B
:1055A000CE190895882339F090915C02892B80935D
:1055B0005C020E94CE190895882309F455C0682F13
:1055C000823869F40E94BA2081FF4EC069E382E10B
:1055D00092E00E9474200E94CE1969E30EC08338C5
:1055E00099F40E94BA2080FF3FC063E582E192E017
:1055F0000E9474200E94CE1963E582E192E00E942D
:1056000067200E94CE190895843869F40E94BA2058
:1056100082FF2AC067E482E192E00E9474200E9427
:10562000CE1967E4EACF8CEF860F813A30F380E23F
:10563000860F883048F4677081E001C0880F6A9552
:10564000EAF70E94C719DDCF8BE5860F833028F477
:1056500080E090E00E94A4200895685A673120F409
:1056600080E090E00E948E200895CF93882309F473
:1056700096C0C82F8238B1F40E94BA2081FD8FC035
:1056800069E382E192E00E9474200E94CE192FEF1C
:1056900081EE94E0215080409040E1F700C000008E
:1056A00069E317C08338E1F40E94BA2080FD77C017
:1056B00063E582E192E00E9474200E94CE192FEFF0
:1056C00081EE94E0215080409040E1F700C000005E
:1056D00063E582E192E00E9467200E94CE195FC0DC
:1056E0008438B1F40E94BA2082FD59C067E482E197
:1056F00092E00E9474200E94CE192FEF81EE94E078
:10570000215080409040E1F700C0000067E4E1CF05
:105710008CEF8C0F813A80F4E4E1F2E08AE192E0D0
:105720002191C217A1F18E179F07D1F76C2F82E14B
:1057300092E00E947420D1CF80E28C0F883068F410
:10574000C77081E090E001C0880FCA95EAF7909198
:105750005C02892B80935C02C0CFEBE5EC0FE33059
:1057600040F4F0E0E45BFE4F808190E00E94A420D2
:1057700016C0C85AC73198F4EC2FF0E0EE0FFF1FA7
:10578000E15BFE4F808191810E948E2008C06C2FCA
:1057900082E192E00E9467200E94CE19C7CFCF918C
:1057A00008951F93CF93DF93182F893319F0C0E02A
:1057B000D0E002C0C0E5D0E0812F0E94352B2097B9
:1057C00041F08FE99FE00197F1F700C000002197B9
:1057D000F6CF812F0E94DC2ADF91CF911F9108958F
:1057E000EEEBF6E0438128E0421B08F440E021E0C4
:1057F000628181810E943F290895EEEBF6E04381AA
:1058000028E0420F08F44FEF21E0628181810E947D
:105810003F290895EEEBF6E0628128E0621B08F470
:1058200060E021E0438181810E943F290895EEEBF1
:10583000F6E0628128E0620F08F46FEF21E0438117
:1058400081810E943F290895EEEBF6E0818121E0FD
:105850004381628188500E943F290895EEEBF6E073
:10586000818121E043816281885F0E943F29089500
:105870008091BE06282F269530E02115310519F4B8
:105880008170826005C02532310524F08170886402
:105890008093BE060895CF92DF92EF92FF926B0144
:1058A0007C010E94382CB701A60188E090E00E949C
:1058B000FE2EFF90EF90DF90CF9008958091C2066A
:1058C000882319F081508093C2066091BE067091C2
:1058D000BF068091C0069091C1060E944B2C08958E
:1058E0008091C206833018F48F5F8093C206609166
:1058F000BE067091BF068091C0069091C1060E94BD
:105900004B2C0895EEEBF6E083E0808311828FEF5D
:1059100082838383148260817181828193810E945A
:105920004B2C0895A0E0B0E0E8E9FCE20C94A02E36
:10593000E82EF62EE901E42FF0E0611106C0E655ED
:10594000F04FE4914E2F2E2F71C0062F10E0E65538
:10595000F04F4491F42FC42ED12C26E0829FC00139
:1059600011242FEF30E0B9010E94842E5BEA560328
:10597000C001579F900D11248E0D911D8E0D911D0C
:10598000582F550F580FD901A01BB10BAC9DC0016A
:10599000AD9D900DBC9D900D1124E92FF59ED00179
:1059A0001124AB2FBB277901EA1AFB0AEC9CD0012A
:1059B000ED9CB00DFC9CB00D11245901A51AB10845
:1059C000A09E7001A19EF00CB09EF00C1124EF2C53
:1059D000FF242E193F092C9D80012D9D100D3C9D0B
:1059E000100D1124212F6230710591F048F46115DA
:1059F0007105E1F061307105B9F4242F4B2F16C009
:105A00006430710569F040F06630710579F00CC0C2
:105A1000242F492FE12F0AC0492FEF2F2B2F06C02B
:105A2000292FE42F412F02C0292FEB2F49832883F0
:105A3000EA83CDB7DEB7EAE00C94BC2EA3E0B0E079
:105A4000E4E2FDE20C94A82E9091BE0690FF0AC0FD
:105A50009E012F5F3F4F0E94922C4B8169818A816A
:105A60000E94F4282396E2E00C94C42E9091BE0686
:105A700090FF3DC09170811102C0926006C08532D6
:105A800010F0986402C0880F982B9093BE0666238E
:105A900051F06091BE067091BF068091C006909152
:105AA000C1060E944B2C6091BE06669570E04BE0EB
:105AB00050E087E191E00E94A02F892B19F010920D
:105AC0009F0609C081E080939F060E943220909338
:105AD000D0068093CF0681E08093D20620E04091EB
